:020000040801F1
:10000000D8A500206102010831600108A14E010855
:10001000B15E0108890F010809960108000000007F
:10002000000000000000000000000000A101010825
:100030007D11010800000000FD010108C5690108EB
:100040007B0201087B0201087B0201087B02010898
:100050007B0201087B0201087B0201087B02010888
:100060007B0201087B0201087B020108F50F0108F1
:100070007B020108011001080D1001087B02010834
:10008000191001087B0201087B0201087B020108AC
:100090007B0201087B0201087B0201087B02010848
:1000A0007B0201087B0201087B0201087B02010838
:1000B0007B0201087B0201087B0201087B02010828
:1000C0007B0201087B0201087B0201087B02010818
:1000D0007B02010895750108A1750108AD7501083D
:1000E000A11101087B0201087B0201087B020108C3
:1000F0009D6A01087B0201087B0201087B0201085E
:100100007B0201087B0201087B0201087B020108D7
:1001100085700108917001087B020108916A01084D
:10012000251001087B020108311001083D1001086B
:100130004910010800000000000000007B020108D7
:100140007B0201087B0201087B0201089963010818
:100150007B0201087B020108551001087B0201089F
:100160007B0201087B0201087B0201087B02010877
:100170007B0201087B020108000000000000000073
:100180007B0201087B020108DFF810D000F008FCB8
:1001900000480047E1D40108AFF30080D8A5002053
:1001A0002C4B19680868B0E8F04F80F30988BFF35A
:1001B0006F8F4FF0000080F311887047000000003F
:1001C00008480068006880F308884FF0000080F35A
:1001D000148862B661B6BFF34F8FBFF36F8F00DF35
:1001E00000BF00BF08ED00E0DFF80C00016841F43B
:1001F00070010160704700BF88ED00E0EFF30980F7
:10020000BFF36F8F134B1A681EF0100F08BF20ED5D
:10021000108A20E9F04F106009B44FF0500080F3CD
:100220001188BFF34F8FBFF36F8F0EF0ADFD4FF00E
:10023000000080F3118809BC19680868B0E8F04F25
:100240001EF0100F08BFB0EC108A80F30988BFF3CE
:100250006F8F704758000020EFF305807047000053
:100260000648804706480047FEE7FEE7FEE7FEE750
:10027000FEE7FEE7FEE7FEE7FEE7FEE7756A010838
:10028000890101082DE9F05F0546002092469B4652
:1002900088460646814640241BE02846414647469C
:1002A000224600F03BFA53465A46C01A914110D3F9
:1002B00011461846224600F022FA2D1A67EB010873
:1002C0004F4622460120002100F019FA17EB0009E1
:1002D0004E41201EA4F10104DFDC484631462A4687
:1002E0004346BDE8F09F40EA01039B0703D009E0C5
:1002F00008C9121F08C0042AFAD203E011F8013B12
:1003000000F8013B521EF9D27047D2B201E000F86A
:10031000012B491EFBD270470022F6E710B51346A9
:100320000A4604461946FFF7F0FF204610BD421C5E
:1003300010F8011B0029FBD1801A70472DE9FE4FF0
:10034000804681EA0300C00F0C46009021F0004176
:1003500023F00045B8EB0200A94105D240462146F2
:1003600090461C460B46024623F00040104347D0FF
:10037000270DC7F30A00C3F30A510290401A0190F7
:1003800040286BDAC3F3130040F4801B00989246B8
:1003900020B10023D2EB030A63EB0B0B0198594603
:1003A000C0F14002504600F0AAF906460D465046FC
:1003B0005946019A00F0C2F910EB0800614100248F
:1003C00087EA115284EAE7731A4340D0009A62B375
:1003D000019A012A4FEA075215DC001B61EB02016A
:1003E0004FF0004202EA0752CDE90042001C41F5FD
:1003F000801132462B4600F0F9F903B0BDE8F08FCA
:1004000040462146F9E7001B61EB0201001C41F563
:10041000801300185B412018A2F5001747EB030179
:1004200040EAD570B6196D4111E06D084FEA360605
:1004300045EAC0754FEA0752001B61EB0201001C40
:1004400041F5801149084FEA300000195141324608
:100450002B4603B0BDE8F04F00F0B9B90098012277
:1004600040000023D0EB020263EBE07300982146CA
:100470004FEAE074B8EB000061EB0401E9E783F0B8
:1004800000435BE781F0004158E72DE9FE4F81EA28
:10049000030404F0004421F0004100944FF0000BED
:1004A00023F0004350EA01045ED052EA03045BD01B
:1004B000C3F30A54C1F30A552C44A4F2F334019453
:1004C000A0FB0254C1F3130141F48011C3F31303E1
:1004D00043F4801301FB024400FB034E840A970A95
:1004E00044EA815447EA8357A4FB076802958D0AC2
:1004F00005FB07854FEA932C04FB0C542705029D4E
:100500004FEA065847EA1637B5EB08056EEB070CBD
:10051000870E920E47EA811742EA8312A7FB020177
:10052000B6EB0B0164EB00042B0D43EA0C335E18B1
:1005300044EB1C50DA465146E7FB0201C5F31304B5
:100540004FEA0B3343EA14534FEA0432019C43EA67
:100550000603A4F10C040294009CCDE900B400F061
:1005600045F903B0BDE8F08F00200146F9E72DE919
:10057000F04D81EA030404F0004B21F000451446DD
:100580004FF0000A23F0004150EA050220D054EA5F
:1005900001021DD0C5F30A570246C5F31303C1F388
:1005A0001300C1F30A5640F4801543F48013A7EBFF
:1005B0000608101BD64608F2FD3873EB050002D37F
:1005C00008F1010801E092185B41B8F1000F03DA6D
:1005D00000200146BDE8F08D00204FF48011064652
:1005E00084460EE0171B73EB050705D3121B63EB64
:1005F000050306434CEA010C49084FEA3000921803
:100600005B4150EA0107EDD152EA030012D082EAC1
:10061000040083EA0501084305D0101BAB4106D254
:100620000122002306E000224FF0004302E06FF0B9
:10063000010253101AEB06004CEB085110EB0A00B4
:1006400041EB0B01BDE8F04D00F0C1B80EB5C10F94
:1006500080EAE0700844CA07002140F233438DE885
:100660000E000A460B4600F0C1F803B000BDC1F30E
:100670000A5210B5C1F3130140F2FF3341F4801167
:100680009A4201DA002010BD40F233439A42A2F2AE
:10069000334203DC524200F041F810BD904010BDDF
:1006A00000F0004230F000400AD0C10D01F5607149
:1006B000C0F3160042EA0151C208400711437047D7
:1006C00000200146704701F0004330B421F00041A2
:1006D00050EA010206D00A0DA2F56072C1F31301BF
:1006E000002A02DC30BC00207047440F44EAC104F9
:1006F000C100E01830BC00EBC25000F031B8202A35
:1007000004DB203A00FA02F1002070479140C2F168
:10071000200320FA03F3194390407047202A04DB9A
:10072000203A21FA02F00021704721FA02F3D0406A
:10073000C2F120029140084319467047202A06DB87
:10074000CB17203A41FA02F043EAE07306E041FA9F
:1007500002F3D040C2F1200291400843194670478D
:100760000029A8BF7047401C490008BF20F00100C5
:10077000704710B4B0FA80FC00FA0CF050EA0104A3
:1007800004BF10BC704749B1CCF1200421FA04F435
:1007900011FA0CF118BF012121430843A3EB0C010E
:1007A000CB1D4FEA00614FEA102042BF002010BC71
:1007B000704700EBC35010440029A4BF10BC704721
:1007C000401C490008BF20F0010010BC704710B564
:1007D000141E73F1000408DA401C41F10001921864
:1007E0005B411A4301D120F0010010BD2DE9F04D0D
:1007F00092469B4611B1B1FA81F202E0B0FA80F262
:1008000020329046FFF77BFF04460F4640EA0A007D
:1008100041EA0B0153465A46084313D0114653EAA6
:10082000010019D0C8F140025046FFF777FF054696
:100830000E46504659464246FFF761FF084305D031
:10084000012004E020463946BDE8F08D0020054334
:1008500046EAE0762C4337430A986305E40AA0EBA6
:1008600008000022FD0A44EA47540A3002D500205D
:100870000146E9E7010510196941DDE9084500195C
:100880006941BDE8F04DA2E770B521F00043034394
:100890000CD0C1F30A550024D5EB040564EB040326
:1008A000D617AD1AB34102DB0020014670BD2018F7
:1008B00041EB025170BD00002DE9F041054621F0E9
:1008C00000400C46284309D0C4F30A5040F233419B
:1008D000884205DD28462146BDE8F0812846FBE731
:1008E00040F2FE31884210DC0CDB4FEA043040EA73
:1008F000155050EA053105D0104804F0004101437D
:100900000020E9E700200146E6E7A0F23340464236
:10091000C6F1400228462146FFF7F1FE0746884609
:10092000284621463246FFF7F9FE43463A46FFF78E
:100930004EFF3246BDE8F041FFF7E1BE0000F03F58
:1009400030B5041E71F1000404DB4FF00044404256
:1009500064EB0101141E73F1000405DB1C464FF02B
:100960000043524263EB04038B4208BF824230BD16
:1009700030B5041E71F1000404DB4FF00044404226
:1009800064EB0101141E73F1000405DB1C464FF0FB
:100990000043524263EB0403994208BF904230BDCA
:1009A000064C074D06E0E06840F0010394E80700BC
:1009B00098471034AC42F6D3FFF7EAFB1808020858
:1009C000380802082DE9F04D00231A461B1A8A4107
:1009D00003DB00200146BDE8F08DC1F30A52C1F3EC
:1009E000130141F480154FF0000BD10702D100181C
:1009F0006D41521E0027044640F2FF11384601EBBC
:100A0000620A3E468046024600204FF48011FFF7FE
:100A100085FEC2197141BB1846EB0100B4EB030C13
:100A200075EB000C04D3E41A65EB000517460E467F
:100A3000241908F101006D4180463428E3DDF919DD
:100A400046EB0600091BA84103D24FF0FF321346C4
:100A500001E0002213461BEB070046EB0A51BDE8FC
:100A6000F04DFFF7B4BE0EB540F2334102910021C4
:100A7000CDE900110A460B46FFF7B8FE03B000BDF2
:100A800070B5C1F30A5201F000450024C1F313010F
:100A900040F2FF3341F480119A4201DA002070BD28
:100AA00040F233439A42A2F2334203DC5242FFF750
:100AB00035FE00E090402C43F1D0404270BD70B54F
:100AC0008C1810F8015B15F0070301D110F8013BF9
:100AD0002A1106D110F8012B03E010F8016B01F880
:100AE000016B5B1EF9D12B0705D40023521E0DD4D8
:100AF00001F8013BFAE710F8013BCB1A921C03E026
:100B000013F8015B01F8015B521EF9D5A142D8D35D
:100B1000002070BD10B50146806B026C12F0500FC2
:100B200005D0026CD20626D500F0E0FD10BD016CA8
:100B300041F40071016401688A6812F0405F17D1C6
:100B4000027EAAB9CA6A12F4700F02D08A685205EE
:100B50000ED44A6822F020024A60016C21F48071B0
:100B60000164016CC90403D4016C41F0010101640A
:100B700000F0BAFD10BD806BC26CBDE810400846A5
:100B8000104710B5806B40210164416C41F00401B5
:100B9000416400F0ABFD10BD10B5806B00F0A5FD09
:100BA00010BD0000464910B54A6822F440324A6040
:100BB0004A6843681A434A6001684A6822F48072AE
:100BC0004A6001684A68036942EA03224A60016890
:100BD0004A6822F040724A6001684A6883681A4392
:100BE0004A6001688A6822F400628A6001688A6843
:100BF000C3681A438A60816A6FF07062D1420168EB
:100C00008A6822F070628A6001688A680CD0836A00
:100C10001A438A6001688A6822F040528A6001683B
:100C20008A68C36A1A4301E022F040528A60016870
:100C30008A6822F002028A6001688A68037E42EABA
:100C400043028A6090F82010002901684A680FD09A
:100C500042F400624A6001684A6822F460424A60D5
:100C600001684A68174C436A04EB43331A4301E0B6
:100C700022F400624A600168CA6A22F47002CA6201
:100C80000168CA6A838B104C04EB03531A43CA628F
:100C900001688A6822F400728A6001688A6890F8A4
:100CA000303042EA43228A6001688A6822F4806216
:100CB0008A6001688A68406942EA8020886010BDC5
:100CC0000023014000E0FFFF0000F0FF5022024936
:100CD000024800F083BD0000048A00205404002074
:100CE00008B50EF027FD0246002003460090034899
:100CF0000121C06D0EF0B4FE08BD00000C02002002
:100D00002DED048B92B000258DF820500126DFEDEB
:100D1000958A954F9FED959ADFF85492954CB04681
:100D20000DF1240B142103A8FFF7F6FA4FF0FF3260
:100D300008A938680EF06CFB0128F3D18DF80C80FF
:100D40009DF820004B2807D04A2808D0492809D010
:100D50004038C0B23EB107E002260B2004E0012675
:100D60000A2001E00026002006283AD006DC0628EA
:100D700068D2DFE800F0670C1116242D072837D061
:100D8000082847D018284CD019285BD14CE0B1EE88
:100D9000040A0BF03BFC21E0B1EE040A0BF036FC38
:100DA00013E0022E04D1B0EE490A0BF02FFC27E02D
:100DB000B1EE040A0BF02AFCB1EE400A27E0B1EED6
:100DC000040A0BF023FCB1EE400A8DED050AEFE7B3
:100DD000B1EE040A0BF01AFCB1EE400A8DED050AE3
:100DE00026E0B1EE040A0BF011FCB1EE400A15E06A
:100DF000022E08D1B0EE490A0BF008FCB1EE400A11
:100E00008DED060A14E0B1EE040A0BF0FFFB8DED48
:100E1000040A0DE0B1EE040A0BF0F8FB8DED050AB3
:100E2000F1E79FED550A01E09FED540A8DED070AA9
:100E3000029507980DF10C0C019500909CE80F00AD
:100E400008F0CEFF9DF820107B2915D07D2920D0F9
:100E50002078012812D002287FF464AF99F803109B
:100E60004846502918D0572919D042784D2A19D010
:100E7000232A37D0607830E084F80080607832220E
:100E8000B0FBF2F302FB1303401C09F8031060707F
:100E900048E702202070E1E705F0A9FB5AE005F0E1
:100EA000A5FB57E0312906D0322907D03329E1D1FB
:100EB00000F0C4FA4EE005F0D5FC4BE005F010FD63
:100EC00048E06178081AFFF7C1FB41EC110B9FED78
:100ED0002C0B09F009FEA078401EA070C0B20428B7
:100EE000EFD237E0B0EE688A4FF0000A242109A85B
:100EF000FFF712FA607832282CD87D2109F800100B
:100F00004B460020B2EE040ADC461CE0A2F13001A0
:100F100009290AD800EE901AB0EE481AF8EEE00A55
:100F2000B0EE608A01EE008A0BE03A2A09D10CEBA0
:100F30008A0181ED008A0AF1010101F0FF0AB0EE99
:100F4000688A401CC0B21A5C7D2ADFD10BEB8A0094
:100F500080ED008A25706570A57032210448FFF786
:100F6000DBF9DFE6000000003C00002000007042DA
:100F700058950020080200200AD7233C0AD723BC3A
:100F80000000000000002440FEE7000000221021C5
:100F9000014801F01FB900000000024001221021A9
:100FA000014801F017B900000000024070B50D4D76
:100FB00028688047C8200DF06BFD686880474FF4B3
:100FC00096700DF065FD0024A868804719200DF08B
:100FD0005FFD641CE4B21E2CF6D36868BDE8704067
:100FE00000470000F80000201021014801F0EAB895
:100FF00000000240014800F0F7BC00002809002072
:10100000014800F0F1BC0000C8080020014800F0D1
:10101000EBBC0000E8090020014800F0E5BC00003E
:1010200088090020014800F0DFBC00009C0400207B
:10103000014800F0D9BC0000E0050020014800F0A4
:10104000D3BC000040060020014800F0CDBC0000E9
:10105000A0060020014800F0C7BC000000070020E7
:1010600001681823CAB2103AB2FBF3F2054B6FF3D2
:101070000901032A9B5CC36500D9091D81650846E7
:1010800070470000ECFA010810B5014600208B699A
:101090008A6A4FF0C07453B1B3F5005F15D072B1D6
:1010A000012A0CD0022A0AD0032A09D104E01AB17D
:1010B000012A06D0022A03D1C96AC90100D501203C
:1010C00010BDC96AA142FAD010BD002AF7D0012A8A
:1010D000F2D0022AF3D0032AF3D010BD30B5046851
:1010E000256825F480252560046863608368402BAB
:1010F000036803D099600068C26030BD9A600068E0
:10110000C16030BD70B504460021084604EB810281
:10111000491CC2F888051029F8D300224FF48065D5
:10112000A118521C81F81C01AA42F9D320706070EA
:101130000121A170C4F8C80521764022A271607611
:1011400084F81C0584F81D1584F81F0584F81E0515
:10115000090204F11C00FFF7DFF8294604F58E7040
:10116000FFF7DAF8122104F22650FFF7D5F83E21F6
:1011700004F5A760FFF7D0F8002070BD704710F0AD
:10118000FF0100D00121001441EA400080EA101163
:1011900081EA102101F00F0141EA001080B270478E
:1011A0004FF4805000F00ABF72B6FEE7002229B16A
:1011B00001291AD002291BD04FF440720E490B6846
:1011C00023F440730B600B6813430B600A6822F032
:1011D000F8020A600A68022303EBC00002430A60B7
:1011E000086840F48030086070474FF48072E5E78B
:1011F0004FF40072E2E70000103C0240134801681F
:1012000089050FD5016821F400710160016841F47E
:1012100000610160016821F400610160016841F42E
:1012200000710160016849050FD5016821F48061F2
:101230000160016841F480510160016821F480512E
:101240000160016841F4806101607047003C024028
:1012500008490A6822F440720A600A6842F00402EF
:101260000A600A684FF4803343EA002002430A60B0
:1012700070470000103C0240064A136823F4407394
:10128000136013681360136843F001031360017067
:1012900070470000103C0240094910B50C6824F466
:1012A00040740C600C6844F440740C600C6844F0AA
:1012B00001040C600260BFF36F8F436010BD00003B
:1012C000103C0240074A136823F44073136013680C
:1012D00043F480731360136843F0010313600180CB
:1012E00070470000103C0240074A136823F4407323
:1012F0001360136843F400731360136843F0010331
:101300001360016070470000103C024017490868F4
:10131000C206174805D5C26942F01002C261102208
:101320000A600A68920605D5C26942F00802C261E5
:1013300020220A600A68520605D5C26942F00402FA
:10134000C26140220A600A68120605D5C26942F0ED
:101350000202C26180220A600A68920705D5C2694A
:1013600042F02002C2610220086070470C3C02403B
:10137000900A002070B5114904460020C86100F0B1
:101380002FFF06460E4D09E0601C07D024B100F087
:1013900027FF801BA04201D9032070BD2868C0032D
:1013A000F2D42868C00701D001202860286810F016
:1013B000F200F2D0FFF7AAFF012070BD900A0020D2
:1013C0000C3C024038B59FED1B0A1B4C012806D08F
:1013D00002280BD0032812D0042817D01EE00BF0EF
:1013E00015F9D4ED0E0A30EE200A05E00BF00EF9E7
:1013F000D4ED0E0A30EEC00A84ED0E0A0EE00BF0BA
:1014000005F9D4ED0F0A30EE200A05E00BF0FEF8E6
:10141000D4ED0F0A30EEC00A84ED0F0A0EF08AF9FF
:1014200002460020034600900121E06D0EF018FBFB
:1014300038BD0000CDCC4C3E0C02002038B5124C1B
:10144000A07A90B100211148A172002500680029FE
:101450004FF001010BD00DF024FD0EF06BF90246A8
:10146000002300950121606E0AE00121EBE70DF0F9
:10147000DDFC0EF05FF90246009500230121E06DCE
:101480000EF0EEFA38BD00000C02002040000020F3
:10149000F8B5154D002128680DF0C8FC400721D48F
:1014A000124CE07A88B100200026E07200282868FB
:1014B0004FF400410BD00DF0B9FC0EF03BF90246A1
:1014C000002300960121E06D0AE00120ECE70DF019
:1014D000E8FC0EF02FF90246009600230121606E11
:1014E0000EF0BEFAF8BD0000400000200C02002003
:1014F000FEB51448002100680DF098FC40071FD489
:10150000114C002594ED0E0A10EE100A019094ED96
:101510000F0A10EE100A02900DF0E2F9022101A864
:1015200008F08AF806460DF0FBF9012E08D10EF0FE
:1015300001F90246009500230121206E0EF090FA79
:10154000FEBD0000400000200C02002038B5114C08
:10155000042120680DF06AFC0EF0ECF80246002031
:101560000D4D034600900121E86D0EF079FA287BBD
:1015700050B100202873002820684FF4804105D026
:10158000BDE838400DF08DBC0120F3E7BDE83840E0
:101590000DF04CBC400000200C02002078B5002467
:1015A000009490F83C20012A19D0012280F83C20B8
:1015B0000A6807230568092A13D9EE680A3A02EB7C
:1015C000420293409E43EE600B788A680A3B03EB2D
:1015D00043039A400368DD682A43DA6010E0022082
:1015E00078BD2E6902EB420293409E432E610B7838
:1015F0008A6803EB43039A4003681D692A431A6112
:101600004A681F23072A13D205686E6B521E02EB2D
:10161000820293409E436E630B790A885B1E92B2EE
:1016200003EB83039A4003685D6B2A435A6327E008
:1016300005680D2A12D22E6BD21F02EB8202934054
:101640009E432E630B790A88DB1F92B203EB830360
:101650009A4003681D6B2A431A6311E0EE6A0D3A43
:1016600002EB820293409E43EE620B790A880D3BA7
:1016700092B203EB83039A400368DD6A2A43DA627D
:10168000164B0568144A9D4206D10D68122D03D1F0
:10169000556845F48005556005689D4218D10B6872
:1016A000102B01D0112B13D1536843F40003536066
:1016B000096810290CD10A490A4A0968B1FBF2F1FC
:1016C00001EB8101490000E0491E00910029FBD196
:1016D00080F83C40002078BD0023014000200140FC
:1016E0005400002040420F0070477047704770B5AB
:1016F00004004FF0000503D0206C002610B107E075
:10170000012070BD204600F01DF8666484F83C603E
:10171000206CC00610D4206C20F4885040F00200E9
:1017200020642046FFF73EFA6664206C20F0020039
:1017300040F00100206400E0012584F83C60284668
:1017400070BD000070B586B0064614216846FEF7ED
:10175000E3FD1D493068884234D11C4800250168EA
:1017600041F480710160006800F4807005901748B2
:101770001438016841F0010101600068694600F019
:1017800001000590022000900320CDE901051048DA
:1017900000F020FC104C0F48C4E900050015A560BE
:1017A000C4E90350400060618000A0614011C4E9B9
:1017B00007052046656200F0E7F908B1FFF7F4FC81
:1017C000B463A66306B070BD0020014044380240F7
:1017D00000000240106402409C040020F8B504465A
:1017E00000200E46009094F83C10012907D00121FA
:1017F00084F83C1021688B68DB0702D011E00220DE
:10180000F8BD8B6843F001038B604049404B096889
:10181000B1FBF3F101EB410100E0491E0091002909
:10182000FBD121688B68DB0503D58B6823F48073BB
:101830008B6021688B68DB075DD0236C40F201650B
:10184000AB4343F4807323644968490505D5216C93
:1018500021F4005141F480512164216CC90404D564
:10186000616C21F00601616400E0606484F83C0072
:10187000A16B2948274DC863A16B28480864A16B58
:101880002748C86421686FF022000860206841681A
:1018900041F0806141602068816841F4807181601D
:1018A0002168134632464C31A06B00F0D7F96868C6
:1018B0001C49C006206806D0884224D1816811F0F6
:1018C000405F13D01FE08842F8D0174A904203D1FE
:1018D000D1F80423D206F1D0144A904213D1D1F8A2
:1018E000041301F01F011029E8D30CE0816841F0D6
:1018F0008041816007E0206C40F010002064606C43
:1019000040F0010060640020F8BD00005400002099
:1019100040420F0000230140150B0108990B0108FC
:10192000830B0108002001400021014000220140FA
:101930002DE9F0410446876D00F052FC064694F80C
:1019400035000025022806D08020606584F83450D8
:101950000120BDE8F0812068016821F016010160D6
:101960002068416921F080014161206C08B9A06CB8
:1019700020B12068016821F0080101602068016839
:1019800021F0010101600CE000F02AFC801B052819
:1019900007D920206065032084F8350084F834508E
:1019A000D7E720680068C007EED194F85C103F20AC
:1019B0008840B860012084F8350084F83450002055
:1019C000C7E790F83510022903D080214165012036
:1019D0007047052180F835100068016821F0010189
:1019E00001600020704700002DE9F84304464FF0E5
:1019F0000009CDF8009063484FF41651A56D0068BA
:101A0000B0FBF1F72E6894F85C10082000FA01F1A1
:101A100031420FD021680A6852070BD50A6822F0BC
:101A200004020A6094F85C108840A860606D40F081
:101A30000100606594F85C104FF0010808FA01F0AD
:101A4000304208D021684969090604D5A860606D54
:101A500040F00200606594F85C1004208840304239
:101A600008D021680968890704D5A860606D40F036
:101A70000400606594F85C1010208840304218D053
:101A800021680968090714D5A8602068016849031E
:101A900004D50068000308D5A16C07E00168C905FA
:101AA00003D4016821F008010160216C09B12046CE
:101AB000884794F85C1020208840304231D021685B
:101AC0000968C9062DD5A86094F835000528206856
:101AD000016806D0490347D5006800031DD4616C36
:101AE0001CE021F0160101602068416921F08001AD
:101AF0004161206C08B9A06C20B12068016821F018
:101B00000801016094F85C103F208840A86084F8C8
:101B1000358084F83490216D1FE0E16B09B12046D7
:101B20008847606D00282BD0606DC00714D0052059
:101B300084F835002068016821F0010101600098F7
:101B4000401C0090B84203D820680068C007F6D156
:101B500084F8358084F83490E16C002910D001B00D
:101B60002046BDE8F04308470168C905D5D401689F
:101B700021F01001016084F8358084F83490CCE7BE
:101B8000BDE8F883540000202DE9F041044600F040
:101B900027FB06465CB1022084F83500002584F856
:101BA00034502068016821F0010101600DE001203E
:101BB000BDE8F08100F014FB801B052805D920202A
:101BC0006065032084F83500F2E720680068C007EC
:101BD000F0D12268116820480140D4E9010318437C
:101BE000D4E903363343184363691843A3691843A0
:101BF000E3691843236A18430843616A042903D13F
:101C0000D4E90B1319430843106020684069666AE1
:101C100020F0070130460E43012704280CD1A06AAA
:101C20000643E06A40B12046FFF72EFA20B140207B
:101C3000606584F83570BAE7206846612046FFF792
:101C40000FFA94F85C203F2191408160656584F82B
:101C500035700020ACE700003F8010F02DE9F04126
:101C60000446866D90F83400002501280DD001202F
:101C700084F8340094F835700020012F07D084F8E0
:101C8000340002252846BDE8F0810220FBE7022748
:101C900084F8357060652046FFF720FA94F85C10F0
:101CA0003F208840B0602068016841F01601016063
:101CB000206C20B12068016841F0080101602068B3
:101CC000016841F001010160DCE7000070B50446E5
:101CD00000F086FA0546601C02D0044800780444EF
:101CE00000F07EFA401BA042FAD370BD48000020ED
:101CF0002DE9F047044622480F46017E01290AD00B
:101D00000121804601764CF250394846FFF732FBFC
:101D1000020003D02FE00220BDE8F0874FF0FF3033
:101D200038602068174D012801D0A6681CE0207C8F
:101D30006168FFF78DFA4846FFF71CFB02462868EA
:101D400020F00400286014E0217C3046FFF72EFAD2
:101D50004846FFF70FFB0200286820F0FA002860D1
:101D600001D03E6005E0761CD4E902100844B04280
:101D7000EAD8FFF743FA002188F818101046CBE79D
:101D8000900A0020103C02400148C06970470000E2
:101D9000900A00200348016841F0004101600020E2
:101DA00070470000103C02402DE9F0471B4E0546ED
:101DB0001446307E1F468946012808D0012030761F
:101DC0004CF250384046FFF7D5FA18B114E0022023
:101DD000BDE8F0879DB1012D16D0022D19D0224605
:101DE0003B464846FFF758FA4046FFF7C3FA0C490E
:101DF0000A6822F001020A6000213176E8E7E1B2C8
:101E00004846FFF739FAEFE7A1B24846FFF75AFA1A
:101E1000EAE721464846FFF767FAE5E7900A00201F
:101E2000103C0240074900200A68002A09DA054AE6
:101E3000054B0C3A1360054B13600968002900DA62
:101E400001207047103C024023016745AB89EFCD6C
:101E50002DE9F04F0022DFF838B101264FF00F09CD
:101E600006FA02F401EA0403A3427DD122F003073B
:101E70005F44D7F8088895074FEA157C09FA0CFAF1
:101E80000AEA0805DFF80C81404502D14FF000084E
:101E900032E0DFF80481404502D14FF001082BE029
:101EA000DFF8F880404502D14FF0020824E0DFF867
:101EB000F080404502D14FF003081DE0DFF8E480D8
:101EC000404502D14FF0040816E0DFF8DC804045C1
:101ED00002D14FF005080FE0DFF8D080404502D175
:101EE0004FF0060808E0DFF8C880404502D14FF007
:101EF000070801E04FF0080808FA0CF8A84522D1BD
:101F00002C4DD5F800C02CEA030CC5F800C005F133
:101F1000040CDCF800509D43CCF80050254D0C35E6
:101F2000D5F800C02CEA030CC5F800C02D1FD5F869
:101F300000C02CEA030CC5F800C0D7F8085825EA01
:101F40000A05C7F80858056857000323BB409D439E
:101F50000560D50800EB8505D5F820C057074FEA86
:101F6000D76809FA08F700E00CE02CEA070CC5F87E
:101F700020C0C5689D43C5604568A5434560846829
:101F80009C438460521C102AFFF46AAFBDE8F08FB6
:101F900000300140000002400004024000080240FE
:101FA000000C0240001002400014024000180240E1
:101FB000001C0240003C014070470000044910B57D
:101FC0000A68024202D00860FFF7F6FF10BD000069
:101FD000143C01402DE9F84FDFF8BCA10022012597
:101FE00003264FF00F090AF1040BAAF1040E00BFFB
:101FF0000B6805FA02F42340A34270D10F7907F071
:102000000307012F01D0022F16D187684FEA42083B
:1020100006FA08FC27EA0C07D1F80CC00CFA08FCF9
:102020004CEA070CC0F808C04768A7430C79C4F312
:10203000001494403C4344600C79E443A4070AD064
:10204000C4684FEA420C06FA0CF7BC438F6807FAE3
:102050000CF72743C7600C7904F00304022C12D15B
:10206000D40800EB840CDCF820405707FF0E09FA77
:1020700007F824EA0804D1F8108008FA07F848EABB
:102080000408CCF8208004684FEA420C06FA0CF7EA
:10209000BC430F7907F0030707FA0CF727430760E3
:1020A0004C6814F4403F70D03C4C276847F480479C
:1020B0002760246822F0030704F480440094384C1D
:1020C00007EB040CDCF8084897074FEA177809FA81
:1020D00008F7BC43334FB84202D1002724E054E054
:1020E000314FB84201D101271EE0304FB84201D133
:1020F000022719E02E4FB84201D1032714E02D4FDB
:10210000B84201D104270FE02B4FB84201D1052777
:102110000AE02A4FB84201D1062705E0284FB8420D
:1021200001D1072700E0082707FA08F72743CCF872
:102130000878DAF800405746D1F804C09C435FEABB
:10214000CC2C00D51C433C60DBF800405F46D1F846
:1021500004C09C435FEA8C2C00D51C433C60DEF835
:1021600000407746D1F804C09C435FEA8C3C00D520
:102170001C433C60084F083F3C68D1F804C09C43B6
:102180005FEACC3C00D51C433C60521C102AFFF493
:102190002FAFBDE8F88F0000083C014044380240F2
:1021A00000300140000002400004024000080240EC
:1021B000000C0240001002400014024000180240CF
:1021C000001C0240426921EA02030A4043EA02413C
:1021D000816170470AB1816170470904FBE7000023
:1021E000014880687047000048000020D0F8DC03F8
:1021F00006F0B5B9D0F8DC0306F0C6B9006806F001
:1022000067BE006806F068BEC1EB011100EB8100FB
:10221000002200F81A2F4270C27282721046704774
:10222000C1EB011100EB810090F84C007047C1EB4D
:10223000011100EB8100806B704710B5044690F8E7
:10224000D403012809D0012084F8D403206806F0C3
:102250004EFE002084F8D40310BD022010BD2DE9ED
:10226000FF4F83B00546DDE9117690F8D403DDF821
:10227000408093468A4601281CD0CAEB0A110123EC
:1022800005EB810485F8D4334FF0000984F81990E8
:102290000698207584F815A084F826700BF07F004E
:1022A000A07551462846FFF7AFFF5FEA0B6005D5E2
:1022B000E37505E0022007B0BDE8F08F84F81790C1
:1022C000286806F009FE012F06D1B8F1010F03D1ED
:1022D00010B9BC2E00D9BC2684F81880B0B2208575
:1022E000CDF80080CDE9017028685A465146069B1A
:1022F00006F068FE85F8D493DDE7D0F8DC0306F03D
:10230000BBB92DE9F0030E46DDE906C9DDE9087425
:10231000C1EB061100EB81010225CA7581F8263058
:10232000BCF1000F0AD081F82A50002463B1012BC0
:1023300031D0022B28D0032B16D125E04FF0030813
:1023400081F82A804C76F0E7BCF1010F0CD11AB16C
:102350008A7E012A19D007E0D7B9012281F83D20F1
:1023600000E0C2B181F82A50C1F82C904F6381F887
:102370004C408C634E7581F84D4082790068BDE811
:10238000F003143106F0AEBE12B191F83C20E8E73C
:1023900091F83D20E5E781F82A40E5E72DE9F04195
:1023A00006680446304606F09EFD012877D1206875
:1023B00007F054F8002872D0206807F04FF8800228
:1023C00003D521684FF400104861206807F046F8F3
:1023D000C00203D521684FF480104861206807F0DF
:1023E0003DF8400103D521684FF0806048612068C6
:1023F00007F034F8800702D5216802204861206880
:1024000007F02CF8800018D521684FF00050486183
:10241000D6F84004C00710D11021304606F03AFD2E
:10242000304606F01BFD607A022803D101212068A6
:1024300006F0F0FF2046FFF7DDFE206807F00EF8FB
:10244000C00102D5204602F09EFC206807F006F885
:10245000000705D5204600F0C8F82168082048612B
:10246000206806F0FBFF800124D5206806F036FEC8
:10247000074600254FF0010815E000BF05F00F01E9
:1024800008FA01F038420DD006EB4510D0F80005EF
:10249000E9B20004204603D502F046F902E01CE050
:1024A00002F000FB6D1C6079A842E7D821684FF06C
:1024B00000704861206806F0D1FFC043C0060CD40C
:1024C0002068816921F010018161204602F0A5FC9D
:1024D0002068816941F010018161BDE8F081F8B5A3
:1024E000040005D094F8D5032568002610B106E055
:1024F0000120F8BD84F8D463204600F029F80320B9
:1025000084F8D503B5F1A04F00D1A671206806F07C
:1025100071FC207C8DF8000094E80F0006F00AFCA6
:10252000022560B90121206806F0D4FF38B9207C6B
:102530008DF8000094E80F0006F004FF10B184F855
:10254000D553D5E7012084F8D5030020F8BD00005D
:1025500010B586B0044614216846FDF7DDFE2068FC
:10256000B0F1A04F2FD119480021026842F00102BA
:102570000260006800F0010005904FF4C050009028
:102580000220CDE90101032003900A20049069464E
:102590000F48FFF71FFD0D48001D016841F0800145
:1025A00001600A481430016841F48041016000680C
:1025B000002200F4804005900521432000F016FD24
:1025C000432000F005FD06B010BD00003038024089
:1025D00000000240D0F8DC0306F06BB8D0F8DC0352
:1025E00006F06BB8006806F05CBFD0F8DC0306F0BC
:1025F0000BB810B5044690F8D40301280DD0012083
:1026000084F8D4030121206806F00CFC206806F051
:102610001FFC002084F8D40310BD022010BD10B5AB
:10262000044690F8D403012809D0012084F8D4038B
:10263000206806F07DFF002084F8D40310BD02203E
:1026400010BD000070B5040025D094F83D000025B1
:1026500020B984F83C50204600F0FCFB242084F88C
:102660003D002068016821F00101016020680168D7
:1026700041F4004101602068016821F400410160DB
:1026800000F0A0FD4D4A6168914201D84C4900E03C
:102690004C49884201D2012070BD4B492368B0FBF0
:1026A000F1F15E6826F03F060E435E606368934278
:1026B00006D94FF4967359434FF47A73B1FBF3F193
:1026C0002368491C1E6A26F03F063143196261687F
:1026D000914210D84900401EB0FBF1F2521CC2F3E7
:1026E0000B02042A01D2042022E0B0FBF1F0401CCE
:1026F000C0F30B001CE0A268F2B301EBC10303EBD3
:102700000116431EB3FBF6F35B1C43F480431B0529
:1027100049D092B301EBC10202EB0111401EB0FBA4
:10272000F1F0401CC0F30B0040F4804040F4004046
:102730002168CA694CF6FF739A431043C861D4E913
:10274000071001432068026822F0C00211430160B3
:10275000D4E9030101432068826848F2FF339A43B9
:1027600011438160D4E9050108432168CA6822F059
:10277000FF021043C86001E00EE016E02068016827
:1027800041F0010101602564202084F83D002563AB
:1027900084F83E50002070BD01EB4106431EB3FBA0
:1027A000F6F35B1CB3E70120C2E701EB4101401ED9
:1027B000B0FBF1F0401CC0F30B00B7E7A0860100AE
:1027C00080841E0000093D0040420F002DE9F84FB3
:1027D0001F4690468A460446DDF82890FFF700FD24
:1027E000054694F83D00202871D119230122704933
:1027F0002046009502F02EFD0028F5D194F83C000B
:10280000012864D0012084F83C0020680168C907D1
:1028100003D1016841F0010101602068016821F4E1
:1028200000610160222084F83D00102084F83E0001
:1028300000262664C4F824806785608D20855D4865
:10284000E0622B464A465146204602F041FB0028F2
:1028500076D1208D584F68B1012814D00228206805
:10286000016816D041F48061016020684169806987
:1028700000908EE02068416981690091016841F40F
:102880000071016085E02068016821F480610160C9
:10289000F0E721F4806101602068016841F4006183
:1028A000E2E7032846D801280AD0022810D04B4678
:1028B000002239462046009502F0CCFCC8BB25E03A
:1028C0002A464946204602F06BFD90BB54E06CE07E
:1028D0004B46002239462046009502F0BBFC40BB27
:1028E0002068016841F40071016020680069616A34
:1028F0000870606A401C6062218D491E2185618DCF
:10290000491E618521680969017039E02068016804
:1029100021F48061016020680069616A0870606A62
:10292000401C6062208D401E2085608D401E6085A9
:10293000CEE705E02A464946204602F031FD10B1B7
:102940000120BDE8F88F20680069616A0870606A3C
:10295000401C6062208D401E81B22185608D401E2A
:10296000608520684269D243520712D4032903D1FB
:10297000016821F48061016020680069616A087063
:10298000606A401C6062208D401E2085608D401E64
:102990006085208D002884D1202084F83D0084F8B3
:1029A0003E6084F83C600020CBE70220C9E70000CD
:1029B000020010000000FFFF040001002DE9F84FA5
:1029C0001F4690468A460446DDF82890FFF708FC2B
:1029D000054694F83D0020287FD119230122404963
:1029E0002046009502F036FC002876D194F83C0091
:1029F000012872D0012084F83C0020680168C907D2
:102A000003D1016841F0010101602068016821F4EF
:102A100000610160212084F83D00102084F83E0010
:102A200000262664C4F824806785608D20852D48A3
:102A3000E0622B464A465146204602F0BFFA90B962
:102A4000206841698069009036E02A464946204660
:102A500002F0DEFC50B1206C042804D1206801682B
:102A600041F4007101600120BDE8F88F606A2168BF
:102A700000780861606A401C6062618D491E618552
:102A8000218D491E89B2218522685369DB435B078A
:102A90000BD451B100781061606A401C6062608D97
:102AA000401E6085208D401E20852A4649462046CE
:102AB00002F0A4FB0028CED1208D0028C5D154F807
:102AC0003D0B016841F400710160202004F81E09EB
:102AD000E67766770020C7E7FFE70220C4E700003B
:102AE000020010000000FFFF2DE9FF4F83B09A465F
:102AF000DDE9118793460446DDF84090FFF770FB4F
:102B0000054694F83D00202870D11923012274490C
:102B10002046009502F09EFB0028F5D194F83C0079
:102B2000012863D0012084F83C0020680168C907AF
:102B300003D1016841F0010101602068016821F4BE
:102B400000610160222084F83D00402084F83E00AE
:102B500000262664C4F82490A4F82A80608D20857D
:102B60006048E062CDE9007553465A462046049914
:102B700002F072FA002879D1208DD0B1012821D03D
:102B80000228206824D0416980690090208D0328A4
:102B900066D801282BD0544902283B464FF000024A
:102BA000009557D08846204602F054FB00285DD19E
:102BB0003AE02068416981690091016841F400713F
:102BC00001607DE02068016821F480610160F0E728
:102BD000016821F4806101602068016841F40061AE
:102BE0000160206841698069009069E075E02A46CB
:102BF0003946204602F0D4FB88BB54E020680168C7
:102C000041F40071016020680069616A0870606ABF
:102C1000401C6062218D491E2185618D491E6185A0
:102C200021680969017042E02068016821F480612F
:102C3000016020680069616A0870606A401C606217
:102C4000208D401E2085608D401E60853B46002201
:102C500041460095204602F0FDFA00B9CEE705E0B6
:102C60002A463946204602F09BFB18B1012007B0E6
:102C7000BDE8F08F20680069616A0870606A401CD6
:102C80006062208D401E81B22185608D401E60856E
:102C900020684269D243520712D4032903D1016844
:102CA00021F48061016020680069616A0870606ACF
:102CB000401C6062208D401E2085608D401E608516
:102CC000208D00287FF462AF202084F83D0084F836
:102CD0003E6084F83C600020C9E70220C7E700009E
:102CE000020010000000FFFF040001002DE9FF4F6B
:102CF00083B09A46DDE9119793460446DDF840809B
:102D0000FFF76EFA054694F83D0020287FD119237D
:102D1000012240492046009502F09CFA002876D115
:102D200094F83C00012872D0012084F83C0020680F
:102D30000168C90703D1016841F001010160206801
:102D4000016821F400610160212084F83D004020E9
:102D500084F83E0000262664C4F82480A4F82A9053
:102D6000608D20852C48E062CDE9007553465A46B7
:102D70002046049902F0EEF970B930E02A4639464F
:102D8000204602F045FB58B1206C042804D120688D
:102D9000016841F400710160012007B0BDE8F08FC7
:102DA000606A216800780861606A401C6062218D59
:102DB000491E89B22185628D521E6285226853693F
:102DC000DB435B070BD469B100781061606A401C7B
:102DD0006062208D401E2085608D401E6085208DA4
:102DE0000028CBD12A463946204602F007FA0028AF
:102DF000CAD154F83D0B016841F4007101602020F4
:102E000004F81E09E67766770020C6E7FFE7022090
:102E1000C3E70000020010000000FFFF10B50068CB
:102E2000094988420FD10948016821F40011016065
:102E3000074C40212046FFF70BF82046BDE8104024
:102E40008021FFF705B810BD005400404038024013
:102E50000004024010B586B0044614216846FDF710
:102E60005BFA13492068884220D112480021026889
:102E700042F002020260006800F002000590C020EB
:102E800000901220CDE9010103200390042004905A
:102E900069460948FFF79EF806481030016841F47A
:102EA00000110160006800F40010059006B010BD2C
:102EB000005400403038024000040240024881685B
:102EC0000278114481607047480000200B4810B51B
:102ED000016841F400710160016841F480610160A2
:102EE000016841F480710160032000F09FF8002028
:102EF00000F006F800F050F8002010BD003C024041
:102F000030B505461F4887B00024016841F0200114
:102F10000160006806A900F02000009001A800F000
:102F200031F90498A8B100F04DF940001649174A4C
:102F3000B0FBF1F11648491E026040F2E732C0E9E9
:102F40000324C0E90114846100F0B6FB040003D03F
:102F500015E000F037F9E9E70D4800F0B9FC04008E
:102F60000DD1372000F034F8102D07D20022294669
:102F7000372000F03BF80748056000E0012407B067
:102F8000204630BD4038024040420F00001400404F
:102F9000480A00204C0000200C4882B0016841F42F
:102FA00080410160006800F4804000900748001FE5
:102FB000016841F0805101600068002200F08050FB
:102FC00000900F21901E02B000F010B8443802406B
:102FD000002809DB00F01F02012191404009800018
:102FE00000F1E020C0F8001170470000F0B40E4B73
:102FF0001B680C46C3F30223C3F10705042D00D957
:103000000425191D072901D2002300E0DB1E01263B
:1030100006FA05F1491E214099409E40761E164051
:103020003143F0BC06F077BF0CED00E0064900F03C
:10303000070208684FF6FF03184040EA0220034ADF
:1030400010430860704700000CED00E00000FA0536
:103050002DE9F0470E46050065D0DFF81481D8F859
:103060000000F7B200F00700B04207D288F8007005
:10307000D8F8000000F00700B04254D128683D4C59
:10308000810712D5400703D5206840F4E050206046
:103090002878000703D5206840F46040206020684D
:1030A000A96820F0F000084320602878C0072DD0E0
:1030B000304968680839012812D0022813D0032843
:1030C00011D00968890700292DDA216821F0030150
:1030D00001432160FFF784F8814641F2883A0EE00F
:1030E00009688903EFE709688901ECE7FFF778F8D9
:1030F000A0EB0901514502D90320BDE8F087206803
:10310000696800F00C00B0EB810FEFD1D8F8001027
:10311000404601F00701B14207D90770006800F08E
:103120000700B04201D00120E7E72878400705D525
:103130002068E96820F4E050084320602878000700
:1031400006D52068296920F4604040EAC10020606B
:1031500000F058F82168084AC1F30311515CC840D7
:103160000649086006480068FFF7CAFE0020C4E769
:10317000003C024008380240F4FA010854000020E4
:103180004C0000200F2202600C4A136803F0030376
:103190004360136803F0F0038360136803F4E053A3
:1031A000C36012684FF4E05303EAD202026104489C
:1031B000006800F00700086070470000083802400F
:1031C000003C02400448054900680968044AC1F30C
:1031D0008221515CC84070475400002008380240EA
:1031E00004FB01080448054900680968044AC1F362
:1031F0004231515CC84070475400002008380240FA
:1032000004FB0108154810B5006810F00C021448C2
:1032100013D04110042A0FD0082A0ED10F4C241FBE
:103220002268236802F03F025B0207D52068C0F3E2
:103230008810A0FB010106E0084610BD2168C1F31B
:103240008811A1FB00010023FDF71CF82168C1F3E0
:103250000141491C4900B0FBF1F010BD08380240A3
:103260000024F4002DE9F84F04006ED02078DFF838
:103270004C93C007A9F104054AD009F10400016884
:10328000C1F38101012908D00068C0F38100022840
:103290000AD1D9F80000400206D52868800337D546
:1032A00060680028E1D033E06068B0F5803F10D05E
:1032B000B0F5A02F286810D020F48030286028684E
:1032C00020F4802028606068A8B1FEF789FF0646D8
:1032D0000DE0286840F48030F4E740F48020286056
:1032E000F7E700BFFEF77CFF801B642873D82868CF
:1032F0008003F7D50CE0FEF773FF064605E000BF3C
:10330000FEF76EFF801B6428F0D828688003F7D48E
:103310002078DFF8AC8280074FF0000A3ED5A7483E
:10332000001D016811F00C0F08D00068C0F3810087
:1033300002280BD1D9F80000400207D42868800782
:1033400016D5E068012800D112E033E1E068B8B199
:103350000120C8F80000FEF743FF064605E000BF65
:10336000FEF73EFF801B0228C0D828688007F7D5EB
:103370002868216920F0F80040EAC10028600DE0CB
:10338000C8F800A0FEF72CFF064604E0FEF728FF71
:10339000801B02281FD828688007F7D420780007F0
:1033A00022D5864F87486169703771B1012101606C
:1033B000FEF716FF064604E0FEF712FF801B022808
:1033C00009D838688007F7D50EE0C0F800A0FEF7EE
:1033D00007FF064605E082E0FEF702FF801B022899
:1033E0007DD838688007F7D42078400768D5DFF8A3
:1033F000CCB100270BF13C0BDBF80000C0000BD474
:10340000DBF8001041F08051CBF80010DBF8000031
:10341000012700F0805000906B4E3068C00510D43A
:10342000306840F480703060FEF7DAFE009005E00E
:10343000FEF7D6FE0099401A022850D83068C00521
:10344000F6D55E4EA0686C3601280FD0052830688E
:1034500010D020F001003060306820F004003060AF
:10346000A068B8B1FEF7BCFE00900FE0306840F0F5
:103470000100F4E740F004003060F7E7FEF7B0FE2B
:103480000099411A41F28830814266D8306880073D
:10349000F4D50EE0FEF7A4FE009007E0FEF7A0FED4
:1034A0000099411A41F28830814256D8306880072D
:1034B000F4D42FB1DBF8001021F08051CBF80010CC
:1034C000A069C8B33D49091D0968C1F381010229FA
:1034D0004AD00228504607D0C8F8600000E03CE01F
:1034E000FEF77EFE04463BE04746C8F86000FEF764
:1034F00077FE064605E000BFFEF772FE801B02283D
:103500002BD828688001F7D4D4E907010843A16AC1
:103510002E4A490802EB0141626A41EA82110843DE
:1035200094F82C1040EA0161C9F8001001203866B7
:10353000FEF756FE044606E03EE000BFFEF750FEF2
:10354000001B022809D828688001F7D534E000BFA5
:10355000FEF746FE001B022802D90320BDE8F88FC3
:1035600028688001F4D427E00128F7D0D9F80000BA
:10357000E26900F4800191421CD1226A00F03F010F
:10358000914217D147F6C071626A0140B1EB821FC8
:1035900010D1A26A4FF0FF3300F4403103EB520226
:1035A000B1EB024F06D194F82C1000F07060B0EB34
:1035B000016F01D00120D1E70020CFE7043802409D
:1035C00000004742800E4742007000400000FFFFAD
:1035D0007047704710B590F83C20012A22D0012294
:1035E00080F83C20CA688C6822F4407222434C6800
:1035F00022F4806222430C6822F4006222430C69A8
:1036000022F4805222434C6922F400522243C969B9
:10361000002322F480420A4301684A6480F83C3067
:10362000002010BD022010BD70B590F83C20012A8A
:1036300032D0012480F83C40022280F83D2003680B
:103640005A689D6822F070060A6832435A60134B2C
:1036500002689A4214D0B2F1804F11D0104B9A42B6
:103660000ED0104B9A420BD00F4B9A4208D00F4B02
:103670009A4205D00E4B9A4202D00E4B9A4204D188
:10368000496825F080031943916080F83D4000218E
:1036900080F83C10084670BD022070BD000001405B
:1036A0000004004000080040000C004000040140FD
:1036B000004001400018004010B5040003D094F809
:1036C0003D0010B107E0012010BD002084F83C004F
:1036D000204600F01FF8022084F83D00211D2068DC
:1036E00003F0E2F9012084F8460084F83E0084F8F3
:1036F0003F0084F8400084F8410084F8420084F8D8
:10370000430084F8440084F8450084F83D0000201C
:1037100010BD00002DE9F84F054600684849002615
:1037200088420AD14748016841F0100101600068F1
:1037300000F010000090BDE8F88F43498842FAD1AC
:103740004048001D016841F0020101600068404CE2
:1037500000F0020000904FF04008C4E902864FF4E8
:10376000005BC4E906B6266238484FF060676662BF
:10377000C4E900074FF4806A4FF40069C4E904A962
:103780002046FEF701FA08B1FDF70EFD6C62A56355
:103790002F4C2E486034183084E88101C0146061D9
:1037A000C4E9036AC4E906B6266220466662FEF7EB
:1037B000EBF908B1FDF7F8FCAC62A563244C234893
:1037C000C0343030C4F80880C4E900074FF4006A00
:1037D0000015C4F814A0C4E90360C4E906B6B946EC
:1037E00026625F4620466662FEF7CEF908B1FDF715
:1037F000DBFCEC62A563174C14487830C4F80880F1
:10380000C4E900090015C4F814A0C4E90360C4E9C0
:103810000676266220466662FEF7B6F908B1FDF725
:10382000C3FC2C63AC636C63002205212C20A563D0
:10383000FFF7DCFBBDE8F84F2C20FFF7C9BB000009
:103840000010004040380240000401404064024043
:10385000E00500200007002090F83D10012901D06C
:1038600001207047022180F83D100068114988420C
:1038700014D0B0F1804F11D00F4988420ED00F49BB
:1038800088420BD00E49884208D00E49884205D0A4
:103890000D49884202D00D49884204D1816801F067
:1038A0000701062903D0016841F0010101600020F1
:1038B0007047000000000140000400400008004084
:1038C000000C00400004014000400140001800408E
:1038D00090F83D10012901D001207047022180F8A5
:1038E0003D100168CA6842F00102CA6000681149CF
:1038F000884214D0B0F1804F11D00F4988420ED0C9
:103900000E4988420BD00E49884208D00D498842A2
:1039100005D00D49884202D00C49884204D1816803
:1039200001F00701062903D0016841F0010101609F
:1039300000207047000001400004004000080040E3
:10394000000C00400004014000400140001800400D
:1039500070B5044690F83C000025012817D00126D8
:1039600084F83C60022084F83D002068826822F0E0
:10397000770222F47F4282600868502838D00DDC3C
:1039800020284FD005DC90B3102811D14AE0022046
:1039900070BD302846D040280AD13BE060282FD0A7
:1039A00070280DD0B0F5805F03D0B0F5005F12D065
:1039B000012584F83D60002084F83C00284670BD55
:1039C000CB68D1E90121206803F05CF920688168A7
:1039D00041F0770109E0CB68D1E90121206803F0CB
:1039E00051F92068816841F480418160E1E719E084
:1039F000CA684968206803F019FA5021206806E077
:103A0000CA684968206803F022FA6021206803F040
:103A100043F9CEE7CA684968206803F007FA4021F5
:103A20002068F4E7226801461046F0E770477047C7
:103A30002DE9F04104460068C66805694FF00007AB
:103A4000A90713D5B10711D5F91E0161012020770F
:103A5000206880698007204602D0FFF7E8FF04E075
:103A600000F0A8F8204600F03AF92777680716D545
:103A7000700714D521686FF00400086102202077D8
:103A80002068806910F4407F204602D0FFF7CFFF06
:103A900004E000F08FF8204600F021F9277728078E
:103AA00015D5300713D521686FF008000861042090
:103AB00020772068C0698007204602D0FFF7B7FF53
:103AC00004E000F077F8204600F009F92777E806CF
:103AD00016D5F00614D521686FF010000861082093
:103AE00020772068C06910F4407F204602D0FFF79D
:103AF0009EFF04E000F05EF8204600F0F0F8277723
:103B0000E80708D0F00706D021686FF001000861CF
:103B1000204600F0C7F9280608D5300606D52168EA
:103B20006FF0800008612046FFF752FD680608D557
:103B3000700606D521686FF040000861204600F04D
:103B4000C5F9A8060AD5B00608D521686FF020008F
:103B500008612046BDE8F041FFF73BBDBDE8F081BC
:103B600010B586B0044614216846FCF7D5FB0E4913
:103B70002068884216D10D480021026842F00402F4
:103B80000260006800F0040005904FF4707000902F
:103B90000220CDE901010320039004906946044806
:103BA000FEF718FA06B010BD00040140303802409C
:103BB00000080240704770B5044690F83C000026AB
:103BC0000D4601280FD0012084F83C006AB1042A78
:103BD0001DD0082A2FD00C2A3FD00126002084F8BF
:103BE0003C00304670BD022070BD206803F05CF8D8
:103BF0002068816941F0080181612068816921F0B4
:103C000004018161206881692A69114311E02068FB
:103C100003F07AF82068816941F4006181612068CD
:103C2000816921F480618161206881692A6941EAA2
:103C300002218161D2E7206803F09CF82068C16905
:103C400041F00801C1612068C16921F00401C1612E
:103C50002068C1692A69114311E0206803F0BEF8A9
:103C60002068C16941F40061C1612068C16921F423
:103C70008061C1612068C1692A6941EA0221C1618C
:103C8000ACE710B5040003D094F83D0010B107E094
:103C9000012010BD002084F83C00204600F01EF8F2
:103CA000022084F83D00211D206802F0FDFE012065
:103CB00084F8460084F83E0084F83F0084F8400011
:103CC00084F8410084F8420084F8430084F84400FA
:103CD00084F8450084F83D00002010BD704770470F
:103CE000704700002DE9F04117460D0004464FF0E3
:103CF00000060CD0042D11D0082D16D094F84100E8
:103D0000022819D094F84100012818D07CE094F8DA
:103D10003E00022810D094F83E00F5E794F83F00EA
:103D2000022809D094F83F00EEE794F840000228FA
:103D300002D094F84000E7E70220BDE8F081002FB0
:103D400062D0002B60D04D494D4ADFF838C10220C7
:103D50004DB1042D18D0082D27D084F841000C2D2A
:103D600044D0012687E084F83E00606AC163606A3F
:103D700039460264606AC0F84CC02268606A343216
:103D8000FDF76CFF88BB21E084F83F00A06AC163A7
:103D9000A06A39460264A06AC0F84CC02268A06AD2
:103DA0003832FDF75BFF00BB15E084F84000E06AA5
:103DB000C163E06A39460264E06AC0F84CC0226818
:103DC000E06A3C32FDF74AFF78B909E02068C16833
:103DD00041F400711EE02068C16841F4806119E07F
:103DE0002068C16841F4006114E00DE0206BC163FC
:103DF000206B39460264206BC0F84CC02268206BEF
:103E00004032FDF72BFF08B1012096E72068C1681A
:103E100041F48051C16001222946206802F0B0FEC1
:103E200019492068194A884201D0904203D1436C55
:103E300043F4004343642068884213D0B0F1804FBC
:103E400010D0134988420DD0124988420AD0124935
:103E5000884207D0904205D01049884202D01049CC
:103E6000884204D1816801F00701062903D0016866
:103E700041F00101016030465FE700009B6B0108E3
:103E8000F96B0108316C0108000001400004014099
:103E90000004004000080040000C004000400140C9
:103EA0000018004010B500680649884203D1BDE8FB
:103EB0001040FFF703B80449884201D105F03EFCE9
:103EC00010BD00000014004000040140704738B5E8
:103ED000044690F84200202801D0022038BD61B18C
:103EE0005AB10120206300206063204603F098FA55
:103EF0000028F3D1216B012901D0012038BD2168B0
:103F00000A684968009121680C3151E8002F42F09D
:103F1000100241E80023002BF5D138BD08B500227E
:103F20000092224A904215D190F84200202836D1C2
:103F30001F4800236A46A0F8C81001461D480068C3
:103F40000BF0FAF910B91C4880688047C82218495C
:103F5000164817E0194A904222D190F842002028D2
:103F60001DD1174800236A46A0F84610014615489F
:103F700000680BF0E1F910B90F48806880474622CD
:103F80000F490E48FFF7A3FF0098002807D00E49FD
:103F90004FF080500860BFF34F8FBFF36F8F08BDA5
:103FA0000A498842FBD190F8420008BDA8070020CA
:103FB0009C7F00202C000020F80000203808002002
:103FC000D68100203000002004ED00E060070020D2
:103FD00070470000F8B5016804460868CA684B6974
:103FE00010F00F0F4FF0000559D003F0010602F456
:103FF0009077374365D0C10705D0D10503D5616CF3
:1040000041F001016164410705D5D90703D0616C16
:1040100041F002016164810705D5D90703D0616CC5
:1040200041F004016164010707D502F0200131432A
:1040300003D0616C41F008016164616C00293AD0E1
:10404000800604D5900602D5204603F001F92068C9
:104050004069616CC0F38010090700D460B320464A
:1040600003F0C1F820684069400621D5206814306B
:1040700050E8001F21F0400140E80012002AF5D16D
:10408000E06BA8B16E490165E06BFDF79AFC002872
:1040900011D0E06B016D01B0BDE8F0400847830628
:1040A0000FD593060DD52046BDE8F84003F0D0B8F3
:1040B0002046FFF78DFFF8BD2046FFF789FF6564B6
:1040C000F8BD266B2023012E7DD1C6067BD5D606F2
:1040D00079D508684868009048694FF002064006A4
:1040E00041D5E16B086840680004000CE8D0A28D5F
:1040F0008242E5D9E085C869B0F5807F2DD020687F
:104100000C3050E8001F21F4807140E80012002AB2
:10411000F5D12068143050E8001F21F0010140E87B
:104120000012002AF5D12068143050E8001F21F059
:10413000400140E80012002AF5D184F8423025639E
:1041400020680C3050E8001F21F0100140E80012F8
:10415000002AF5D1E06BFDF7EBFB6663A08DE18DE6
:10416000401A81B22AE0A08DE18D401A81B2E08D23
:104170000028A5D00029A3D022680C3252E8000FF5
:1041800020F4907042E80007002FF5D12068143029
:1041900050E8002F22F0010240E80027002FF5D15F
:1041A00084F84230256320680C3050E8002F22F05C
:1041B000100240E80023002BF5D166632046FFF78C
:1041C000ADFEF8BDFFE705062BD5150629D594F8F9
:1041D00041002128F5D1A068B0F5805F01D12069A8
:1041E000B0B1206A411C2162216800784860E08CEF
:1041F000401E0004000CE084E3D12068C16821F077
:104200008001C1602068C16841F04001C160D8E709
:10421000206A0088C0F308004860206A801C206281
:10422000E5E74006CDD55006CBD5CA68204622F03A
:104230004002CA6084F8413000F074FAC1E700001F
:104240009D70010870B5040004D094F84100002569
:1042500010B106E0012070BD84F84050204600F007
:1042600023F8242084F841002068C16821F400511B
:10427000C160204603F04EF82068016921F49041A6
:1042800001612068416921F02A0141612068C1680B
:1042900041F40051C1606564202084F8410084F835
:1042A00042006563002070BD2DE9F04F87B00546E0
:1042B00014216846FCF730F8A348A349DFF884824C
:1042C000D5F800C000241039022203230827DFF8A4
:1042D0007CB246054FF4406A4FF48069C44536D13C
:1042E000D0F800C04CF4002CC0F800C0006800F406
:1042F00000200590086840F0040008600868CDF8C8
:1043000000A000F00400CDE904700393CDE901247E
:1043100069465846FDF75EFE8E4F8D483860C7E906
:104320000164C7E903497C61BC61FC613C623846B9
:104330007C62FDF729FC08B1FCF736FFEF63002231
:1043400005213420BD63FEF751FE342050E0DFF834
:104350000882C44551D1D0F800C04CF4801CC0F88C
:1043600000C0006800F480100590086840F0040068
:104370000860086800F004000590086840F0080034
:1043800008600868CDE9024300F0080005904FF48A
:104390008050CDE9000292469846694604975846F7
:1043A000FDF718FE0420CDE9000ACDE90248694670
:1043B00004976A48FDF70EFE664F6548603730384F
:1043C0003860C7E90164C7E903497C61BC61FC61ED
:1043D0003C6238467C62FDF7D7FB08B1FCF7E4FE8F
:1043E000EF63002205213520BD63FEF7FFFD352078
:1043F000FEF7EEFD07B0BDE8F08FDFF86481072718
:10440000DFF860B1C44522D14F48001D056845F072
:1044100010050560006800F010000590086840F085
:10442000010008600868694600F0010005904FF43B
:10443000C0608DE81500CDE903375846FDF7CAFD89
:10444000002205212520FEF7D1FD2520D0E7DFF849
:104450001881C44539D1D0F800C04CF4003CC0F8F4
:1044600000C0006800F400300590086840F00100CA
:1044700008600868694600F0010005900C208DE88E
:104480001500CDE903375846FDF7A4FD314F3048FC
:10449000C03748303860C7E90164C7E903497C6127
:1044A0004FF40030BC61C7E9074038467C62FDF735
:1044B0006BFB08B1FCF778FEEF6300220821262091
:1044C000BD63FEF793FD262092E7DFF8A080C44588
:1044D00090D1D0F800C04CF4802CC0F800C0006827
:1044E00000F480200590086840F002000860086829
:1044F000CDF800A000F00200CDE904700393CDE9EF
:10450000012469461A48FDF765FD1148194F183016
:10451000E7E802064020A7E81102164847F81449C8
:10452000BC61FC613C627C62FDF72EFB08B1FCF7CC
:104530003BFEAF63002206212720BD63FEF756FD38
:10454000272055E7004C0040403802400008024058
:1045500040600240C808002000500040000C0240AB
:1045600000100140000002400044004000480040AC
:1045700000040240E809002090F84230202B01D0CE
:104580000220704721B11AB10023036302F090BFEB
:104590000120704708B500210091154988420ED1CD
:1045A0001448007805F040FC134800236A4611497E
:1045B00000680AF0C1FE01220E490D4809E00F49CA
:1045C000884213D10E48007805F02EFC01220C49D8
:1045D0000A48FFF7D1FF0098002807D009494FF09B
:1045E00080500860BFF34F8FBFF36F8F08BD00008E
:1045F00080080020020000203C000020F00700207E
:104600000100002004ED00E070472DE9F843044666
:1046100090F84100984616460D46202802D0022008
:10462000BDE8F88385B17EB100206064212084F864
:104630004100FDF7D5FDA6848146E684A0682027C9
:10464000B0F5805F02D003E00120E9E7206910B1F6
:104650002E4600250EE000260CE08021204602F0C8
:1046600042FFA8B9C6B116F8010B21684860E08C7A
:10467000401EE084E08C4B464FF00002CDF80080F5
:104680000028EAD14FF04001204602F02CFF40B153
:1046900084F841700320C3E735F8020BC0F308002B
:1046A000E3E784F841700020BAE7000070B50446E3
:1046B00090F84100202801D0022070BD49B342B3D8
:1046C0002162A284E28400206064212384F84130C6
:1046D000A56B114BEB63A56B104B2B64A56B104BBB
:1046E000EB64A36B1865256813462A1DA06BFDF7C4
:1046F000B5FA21686FF0400008602068143050E877
:10470000001F41F0800140E80012002AF5D100208E
:1047100070BD012070BD00009B710108DD710108B2
:10472000AD700108704770472DE9F05F05460068DD
:104730000E46074604F08AFEC6EB061140074FF00E
:1047400007084FF0040905EB810401D5484633E022
:104750003146286804F07AFEC0054FF0080A08D5F3
:1047600007EB46114FF48070C1F8080584F84DA09E
:1047700028E03146286804F069FE000705D507EBFC
:104780004611C1F808A506200CE03146286804F05F
:104790005DFE400509D507EB46114FF48060C1F876
:1047A0000805092084F84D000CE03146286804F023
:1047B0004DFE00060AD5802007EB4611C1F808051A
:1047C00084F84D803146286804F091FB3146286812
:1047D00004F03CFE80052868314604D504F087FBD0
:1047E0004FF4007059E104F031FEC0074FF0200B88
:1047F0004FF0010A4FF000084ED007EB4617C7F8FC
:1048000008B5E07E012807D184F81B80D7F804059D
:1048100020F48030C7F80405A87930B1206BD7F8B0
:104820001015C1F31201401AA06384F84DA0C4F81A
:1048300044805246C7F808A594F8260030B10228F3
:1048400004D003280AD0012808D013E03146286894
:1048500004F04DFB1020C7F808050BE0D7F8000561
:1048600040F00050C7F8000584F84C203146284637
:10487000FDF743FDA879012807D1208DA16B0144E4
:10488000491EB1FBF0F0C00704D014F83C0F80F0D3
:1048900001002070BDE8F09F3146286804F0D6FD85
:1048A00080060CD507EB4611C1F808B5A07E01289B
:1048B000F0D184F81BA0032084F84D00B4E0314609
:1048C000286804F0C3FD80074FF0050B75D507EB92
:1048D00046100221C0F8081594F84D20012A16D080
:1048E000062A19D0072A1CD0092A1AD0052A33D043
:1048F000032A63D0042A7DD0082A7ED0022AC9D098
:1049000094F84C2031462846FDF7F7FCC2E784F8BE
:104910004D1084F84CA0F3E784F84D1084F84CB0A7
:10492000EEE784F84D10626C521C6264022A10D9C2
:10493000C4F84480A27E4146012A07D1E17621775E
:10494000D0F8041521F48031C0F8041584F84C9097
:10495000D6E784F84C1022E084F84D10E27E012A5C
:10496000CED194F82620032AF3D1A26C521CA26463
:10497000022A11D9C4F8488084F81B80616C03298D
:1049800001D284F81CA0D0F8041521F48031C0F8BD
:10499000041584F84C9002E084F84C10B0E794F8C9
:1049A000261009B10229ABD1D0F8001521F08041C1
:1049B00041F00041C0F80015A2E724E084F84D1052
:1049C000E27E012A9CD184F84C10D0F8041541F401
:1049D0008031C0F80415D0F80C1541F04001C0F842
:1049E0000C15D0F80C1521F02001C0F80C15D6E7F5
:1049F00000E002E084F84D10ABE784F84D10606CE5
:104A0000401C6064A2E73146286804F01FFD4006A0
:104A100010D507EB46114020C1F8080584F84DB0C9
:104A2000A07E08B9C4F8448031462868BDE8F05F2C
:104A300004F05DBA3146286804F008FDC0067FF531
:104A400065AF94F82600032803D028B1022803D0CC
:104A50000FE0C4F8448006E0C4F84480A87910B19F
:104A6000E07E012818D184F84D903146286804F082
:104A70003EFAE07E01280FD107EB461084F81B8038
:104A8000D0F8041521F48031C0F80415D0F80C15C5
:104A900041F02001C0F80C15102007EB4611C1F8B9
:104AA0000805F7E62DE9F05F054600680F46064663
:104AB00004F0CCFCC7EB071140074FF0040A05EBEC
:104AC000810405D506EB4711C1F808A5072089E048
:104AD0003946286804F0BAFC80064FF000084FF011
:104AE00001094FF0020B28D506EB47112020C1F831
:104AF0000805607E0326012809D184F8198084F80E
:104B00004CB084F84D603946286804F0F0F9A07E76
:104B1000012810D1E07E00280DD194F8260001284C
:104B200001D084F81B9084F84D603946286804F061
:104B3000DEF9C4F84480BDE8F09F3946286804F0E7
:104B400085FC800506D506EB47114FF40070C1F8CF
:104B5000080549E03946286804F078FCC00720D0F1
:104B6000C4F844803946286804F070FC400606D535
:104B700006EB471184F819904020C1F80805E07E43
:104B800048B106EB471084F81B80D0F8041521F4D7
:104B90008031C0F8041506EB47114846C1F8089566
:104BA00020E03946286804F051FC40060ED5052067
:104BB00084F84D00A07E08B984F81990C4F84480A8
:104BC0003946286804F093F9402028E039462868DF
:104BD00004F03CFC00070DD506EB47110820C1F896
:104BE0000805062084F84D0039462868BDE8F05FC6
:104BF00004F07DB93946286804F028FCC00613D5B6
:104C0000C4F8448084F84DA0607E18B9207E08B9AD
:104C100084F819903946286804F069F9102006EBE9
:104C20004711C1F8080586E73946286804F00EFCEC
:104C300000061CD5A87970B1606C401C6064022825
:104C400011D9C4F84480524684F84CA0394628460D
:104C5000FDF753FB09E0072084F84D00394628682A
:104C600004F045F901E084F84CB08020D7E73946DC
:104C7000286804F0EBFB400509D5092084F84D00B5
:104C80003946286804F033F94FF48060C7E73946A5
:104C9000286804F0DBFB8007C5D506EB47125846B1
:104CA000C2F808B594F84D10012917D003293AD05D
:104CB00004293ED005294CD006294DD0072901D022
:104CC0000929B0D184F84D00616C491C6164022946
:104CD00048D9C4F8448084F84CA04DE084F84D00D5
:104CE00084F84C9094F82600022801D0032843D180
:104CF000A87928B994F83D0080F0010084F83D00BF
:104D0000A879012838D1606B10B3218D0844401E6A
:104D1000B0FBF1F0C0072FD094F83D0080F0010007
:104D200084F83D0028E084F84D00E17E012916D08A
:104D300022E084F84D0084F84C00E07E01281BD16D
:104D400084F81B80D2F8040520F48030C2F80405F2
:104D500012E084F84D0002E084F84D00052084F84C
:104D60004C0009E084F84C00D2F8000520F08040A7
:104D700040F00040C2F8000594F84C20394628461F
:104D8000FDF7BBFAD7E67CB504680546D4F84004C5
:104D90000190D4F8400420F02E0000900198800784
:104DA00009D50198C00702D02846FDF71FFA0098E0
:104DB00040F0020000900198000724D5009840F0D0
:104DC00008000090019840071AD5687A022803D09D
:104DD000E87901280CD00FE00198C0F34140022887
:104DE000286803D0012104F015FB05E00221FAE751
:104DF0004EF66020C4F804042846FDF7EFFB02E0FD
:104E00002846FDF7E7FB01988006009802D540F0A0
:104E100020000090C4F840047CBD2DE9F04102461A
:104E200000680646016AC1F3434301F00F07C1F36E
:104E30000A15022B2ED1002D2CD0C7EB071102EB47
:104E40008104E16A002925D0A26B636B2A449A424F
:104E500022D82A4604F006FBE06A2844E062A06BF0
:104E60002844A06306EB4710D0F81015228DC1F33B
:104E7000C941AA420ED100290CD0D0F8001521F06A
:104E8000804141F00041C0F8001514F83C0F80F05B
:104E900001002070BDE8F081042084F84C00F9E79F
:104EA000FEE701684A69D24352050FD46FF480626D
:104EB0004A61002140F8301F202242738173026949
:104EC00042F0040202610173012070470020704724
:104ED0002DE9F84F0446C06A1E4693460D462168E8
:104EE0000A6842F480620A60082807D0012805D0C9
:104EF00010F5803F02D0206B112804D12068016892
:104F000041F4807101604FF001195B46002249466F
:104F10002046009600F09EF94FF4007840B12068DA
:104F20000068C00501D5C4F840800320BDE8F88FB3
:104F30002069DFF884A0B0F5804F0FD006202168EB
:104F400000EAD51747F0F000086133465A460AF1E7
:104F50000601204600F0C6F958BB03E0E8B240F075
:104F600001001CE02168E8B2086133465A46514608
:104F7000204600F0B7F9E0B92068416981690091E5
:104F8000016841F4807101605B4600224946204679
:104F9000009600F05FF90028C1D147F0F1002168C8
:104FA000086133465A465146204600F09BF90028D6
:104FB000BCD00120BAE7000002000100F8B50446A9
:104FC000C06A1E460D461746082807D0012805D09E
:104FD00010F5803F02D0206B122804D120680168B0
:104FE00041F480710160134600224FF00111204608
:104FF000009600F02FF940B120680068C00502D586
:105000004FF4007020640320F8BD2069B0F5804F94
:105010000ED00620216800EAD51040F0F0000861AB
:1050200033463A460B49204600F05CF978B902E075
:1050300005F0FE0000E0E8B221680861054933464A
:105040003A46891F204600F04DF90028DCD00120A7
:10505000F8BD0000080001002DE9F84F0446006883
:1050600089460B9D01689846174641F480610160AE
:105070002068016841F48071016000954FF0011BC8
:105080000022594620460A9B00F0E4F84FF4007ACB
:1050900040B120680068C00501D5C4F840A00320D5
:1050A000BDE8F88F216809F0FE0008612B46284909
:1050B00020460A9A00F016F9F0BB20684169806921
:1050C00000902A4620460A9900F0A2F940B1206CCF
:1050D00004283AD12068016841F40071016034E08D
:1050E000FEB2B8F1010F09D02168380A08612A46DA
:1050F00020460A9900F08CF90028E8D12068066162
:105100002A4620460A9900F083F90028DFD120685A
:10511000016841F4807101600095002259462046E3
:105120000A9B00F097F80028B3D1216809F0FF002E
:1051300040F00100086100E007E02B4604492046EA
:105140000A9A00F0CFF80028AAD00120A8E70000B2
:10515000020001002DE9F843044600680D46DDE930
:10516000089701689846164641F4807101604B46E5
:1051700000224FF001112046009700F06BF848B173
:1051800020680068C00502D54FF400702064032039
:10519000BDE8F883216805F0FE0008613B464A46F9
:1051A0001549204600F09EF888B920684169806959
:1051B00000903A464946204600F02AF948B1206C52
:1051C000042804D12068016841F4007101600120C5
:1051D000DEE7F5B2B8F1010F09D02168300A0861A5
:1051E0003A464946204600F013F90028E7D12068E6
:1051F00005610020CCE700000200010070B51646F2
:105200000D4604461EE02046FFF74BFE08B1012084
:1052100070BD681C16D0FCF7E3FF801BA84200D8C5
:1052200085B920684069C04340070BD5002044F889
:10523000300F20216173A073216941F020012161A9
:105240002073E4E720684069C0434007DBD40020B6
:1052500070BD00002DE9F047984617460D460446FC
:10526000C1F30746DDF820902AE000BFB8F1FF3F08
:1052700026D0FCF7B5FFA0EB0901414502D8B8F1F3
:10528000000F1DD12068012E16D0806925EA00008C
:105290000004000C12D00020B84211D1002044F8C4
:1052A000300F20216173A073216941F02001216139
:1052B00020730120BDE8F0874069E7E70120EBE7B4
:1052C0002068012E0AD0806925EA00000004000C45
:1052D00006D00020B842C9D00020EBE74069F3E7D0
:1052E0000120F7E72DE9F047984616460D4604469B
:1052F0004FF000094FF0200AC1F3074723E0206870
:105300004069C043400515D42068016841F400712C
:10531000016021686FF480604861C4F8309084F8BF
:105320003DA084F83E90216C41F00401216484F892
:105330003C9021E0701C06D0FCF752FFA0EB080067
:10534000B04203D816B1012F1FD021E02068012FF1
:1053500015D0806925EA00000004000C18D000BFB9
:1053600044F8309F84F80DA084F80E90216941F034
:105370002001216184F80C900120BDE8F08740698C
:1053800025EA00000004000CEAD12068406901E031
:105390002068806925EA00000004000CAFD1ECE72A
:1053A0002DE9F041002590460E460446202728E0CE
:1053B0004069C043C0060CD454F8301B6FF0100095
:1053C000486144F810596777A577206A20622577ED
:1053D00014E0FCF705FFA0EB0800B04200D886B946
:1053E00020684069C04340060BD544F8305F6773BE
:1053F000A573206940F02000206125730120BDE8DD
:10540000F08120684169C9434906D1D40020F6E7FC
:1054100070B516460D4604461EE02046FFF741FDD6
:1054200008B1012070BD681C16D0FCF7D9FE801BA6
:10543000A84200D885B920684069C04300060BD552
:10544000002044F8300F20216173A073216941F0DE
:10545000200121612073E4E720684069C043000611
:10546000DBD4002070BD00002DE9FC41154C00206C
:105470004FF4FA768DF80400009601237F21A56889
:1054800001AAD020A8470096054601230021E7681D
:1054900001AAD020B8472844C5B29DF80400EA28E4
:1054A0000DD140208DF804000096A4680123062148
:1054B00001AAD020A047284410F0FF0000D001200E
:1054C000BDE8FC81400100202DE9FC41594C00263B
:1054D0004FF4FA758DF80460009501237F21A768C9
:1054E00001AAD020B8470095074601230021D4F82F
:1054F0000CC001AAD020E0473844C7B29DF8040090
:10550000EA287DD180208DF8040000950123062132
:10551000D4F808C001AAD020E047074421696420DC
:1055200088478DF80460009501230321A56801AA2E
:10553000D020A8470744012064258DF80400009579
:1055400003460621D4F808C001AAD020E04707444A
:1055500020208DF80400009501237F21D4F808C095
:1055600001AAD020E0474FF004088DF80480009590
:10557000074401230021D4F808C001AAD020E04745
:1055800007441F208DF8040000950123D4F808C0BB
:1055900001AA1946D020E0478DF804800095074401
:1055A00001231121D4F808C001AAD020E047074404
:1055B00029208DF80400009501231421D4F808C097
:1055C00001AAD020E0478DF804600095074401232C
:1055D0007F21A66801AAD020B047C61902208DF805
:1055E0000400009501230F21A76801AAD020B84725
:1055F00001230644009501AA19461820E76800E037
:1056000014E0B8473044C6B29DF8040009280DD113
:1056100008208DF804000095A4680123312101AA17
:105620001820A047304410F0FF0000D00120BDE852
:10563000FC81000040010020F0B587B05A4D64267F
:10564000009604460C232D21EF6803AAD020B8470A
:10565000BDF80C0040BA00B200EE100AB8EEC01A55
:1056600084ED031ABDF80E0040BA00B200EE100A35
:10567000F8EEC00AC4ED040ABDF8100040BA00B24A
:1056800000EE100AF8EEC01A9FED480A4A4921EED2
:10569000001A60EE800A21EE800A84ED031AC4ED40
:1056A000040A84ED050ABDF8120040BA00B200EE0B
:1056B000100AF8EEC00AC4ED000ABDF8140040BAA2
:1056C00000B200EE100AB8EEC01A84ED011ABDF85F
:1056D000160040BA00B200EE100AF8EEC01A9FEDB4
:1056E000340A60EE800A21EE001A61EE801A9FED06
:1056F000310A60EE800A21EE001A21EE800A84ED64
:10570000020AB0EEC00A10EE100AC4EC020A884287
:1057100003DA9FED2A0A84ED020A294808231121A1
:1057200090ED000A01AA30EEC00A84ED000A90ED67
:10573000010A31EE400A84ED010A94ED020AD0ED2F
:10574000020A182030EE600A84ED020A0096ED6825
:10575000A8479DF80B00C008C00723D1BDF904007D
:1057600000EE100AF8EEC01AC4ED061ABDF90600E4
:1057700000EE100AB8EEC01A84ED071ABDF9080051
:1057800000EE100AF8EEC00A9FED0E0A61EE801AD4
:1057900021EE001A20EE800AC4ED061A84ED071AE5
:1057A00084ED080A07B0F0BD40010020CDCC1C3AC2
:1057B00000007A3D35FA8E3CCDCC4C3D0000000017
:1057C000288900200020193E012291030148FCF79E
:1057D00001BD00000004024000224FF48041014856
:1057E000FCF7F8BC000402404FF480410148FCF78C
:1057F000E9BC0000000402400122D1030148FCF78B
:10580000E9BC00000004024000224FF400410148BE
:10581000FCF7E0BC000402404FF400410148FCF7F3
:10582000D1BC00000004024070B50E480B4D0C4C7A
:10583000817829B901218170286880476068804794
:1058400009480021006809F0F1FA800701D4A8682E
:105850008047A068BDE8704000470000E0000020DD
:10586000EC0000200C0200204000002010B5054C88
:10587000206880474FF4FA7009F00AF96068BDE8C3
:1058800010400047F80000201FB500211548009186
:1058900001910291124A0391026001244FF40032F7
:1058A0000461C0E90121047680F820100E4AC0E9A5
:1058B0000A21C461C16080F830404461FBF717FFE2
:1058C00008B1FBF771FC07200094CDE9014069465F
:1058D0000448FBF763FE002801D0FBF765FC1FBD01
:1058E00000200140540400200100000F2D4808B59D
:1058F000016841F400110160016801F40011009198
:10590000016841F4800101600068002200F4800019
:10591000009005210B20FDF769FB0B20FDF758FBDC
:10592000002205210D20FDF761FB0D20FDF750FB46
:10593000002205210E20FDF759FB0E20FDF748FB44
:10594000002205211020FDF751FB1020FDF740FB40
:10595000002205213820FDF749FB3820FDF738FBF0
:10596000002205213A20FDF741FB3A20FDF730FBEC
:10597000002205213B20FDF739FB3B20FDF728FBEA
:10598000002205213C20FDF731FB3C20FDF720FBE8
:10599000002205214620FDF729FBBDE808404620EE
:1059A000FDF716BB303802402DE9FC41012009F01B
:1059B00060FB2D4C0022CA21A0600A2009F068FB80
:1059C000606100224821142009F062FBA0610022DE
:1059D0001421012009F05CFB206200220121322009
:1059E00009F056FB60621E2009F04EFB0146E061A3
:1059F000606909F02DFBD4E9060109F029FB1B4A77
:105A000000211B4807F0B8FF0026E0621720CDE90F
:105A100000064FF4807733463A4616A1184809F03D
:105A200023FE04F10C001825CDE9005000233A466E
:105A300014A1174809F018FE04F11000CDE9005038
:105A400000237A0013A1164809F00EFECDE9005696
:105A500000233A4613A1164809F006FE09F006FA9B
:105A6000A062BDE8FC81000018000020C8FA01080F
:105A70002968010853686F775461736B0000000058
:105A8000D566010853656E736F725461736B0000C5
:105A9000F165010842616C616E63655461736B006E
:105AA000EDC8010842544150505461736B0000002E
:105AB000010D01082DE9F04387B014216846FAF77B
:105AC0002BFC3C480024016841F00401016001689E
:105AD00001F004010591016841F080010160016855
