:020000040801F1
:1000000018A70020610201089962010849500108FF
:1000100019610108C10F0108D19901080000000011
:10002000000000000000000000000000A101010825
:10003000B511010800000000FD010108256D01084F
:100040007B0201087B0201087B0201087B02010898
:100050007B0201087B0201087B0201087B02010888
:100060007B0201087B0201087B0201082D100108B8
:10007000391001087B0201087B02010845100108C4
:10008000511001087B0201087B0201087B02010874
:100090007B0201087B0201087B0201087B02010848
:1000A0007B0201087B0201087B0201087B02010838
:1000B0007B0201087B0201087B0201087B02010828
:1000C0007B0201087B0201087B0201087B02010818
:1000D0007B02010805790108117901081D790108E1
:1000E000D91101087B0201087B0201087B0201088B
:1000F000FD6D01087B0201087B0201087B020108FB
:100100007B0201087B0201087B0201087B020108D7
:10011000F5730108017401087B020108F16D010803
:100120005D1001087B0201086910010875100108C3
:100130008110010800000000000000007B0201089F
:100140007B0201087B0201087B02010801660108AD
:100150007B0201087B0201088D1001087B02010867
:100160007B0201087B0201087B0201087B02010877
:100170007B0201087B020108000000000000000073
:100180007B0201087B020108DFF810D000F024FC9C
:1001900000480047ADDE0108AFF3008018A700203B
:1001A0002C4B19680868B0E8F04F80F30988BFF35A
:1001B0006F8F4FF0000080F311887047000000003F
:1001C00008480068006880F308884FF0000080F35A
:1001D000148862B661B6BFF34F8FBFF36F8F00DF35
:1001E00000BF00BF08ED00E0DFF80C00016841F43B
:1001F00070010160704700BF88ED00E0EFF30980F7
:10020000BFF36F8F134B1A681EF0100F08BF20ED5D
:10021000108A20E9F04F106009B44FF0500080F3CD
:100220001188BFF34F8FBFF36F8F0FF0DDFA4FF0E0
:10023000000080F3118809BC19680868B0E8F04F25
:100240001EF0100F08BFB0EC108A80F30988BFF3CE
:100250006F8F704758000020EFF305807047000053
:100260000648804706480047FEE7FEE7FEE7FEE750
:10027000FEE7FEE7FEE7FEE7FEE7FEE7D56D0108D5
:10028000890101082DE9F05F0546002092469B4652
:1002900088460646814640241BE02846414647469C
:1002A000224600F0CCF953465A46C01A914110D369
:1002B00011461846224600F0B3F92D1A67EB0108E3
:1002C0004F4622460120002100F0AAF917EB000951
:1002D0004E41201EA4F10104DFDC484631462A4687
:1002E0004346BDE8F09F40EA01039B0703D009E0C5
:1002F00008C9121F08C0042AFAD203E011F8013B12
:1003000000F8013B521EF9D27047D2B201E000F86A
:10031000012B491EFBD270470022F6E710B51346A9
:100320000A4604461946FFF7F0FF204610BD421C5E
:1003300010F8011B0029FBD1801A70472DE9FE4FF0
:10034000804681EA0300C00F0C46009021F0004176
:1003500023F00045B8EB0200A94105D240462146F2
:1003600090461C460B46024623F00040104347D0FF
:10037000270DC7F30A00C3F30A510290401A0190F7
:1003800040286BDAC3F3130040F4801B00989246B8
:1003900020B10023D2EB030A63EB0B0B0198594603
:1003A000C0F14002504600F03BF906460D4650466B
:1003B0005946019A00F053F910EB080061410024FE
:1003C00087EA115284EAE7731A4340D0009A62B375
:1003D000019A012A4FEA075215DC001B61EB02016A
:1003E0004FF0004202EA0752CDE90042001C41F5FD
:1003F000801132462B4600F08AF903B0BDE8F08F39
:1004000040462146F9E7001B61EB0201001C41F563
:10041000801300185B412018A2F5001747EB030179
:1004200040EAD570B6196D4111E06D084FEA360605
:1004300045EAC0754FEA0752001B61EB0201001C40
:1004400041F5801149084FEA300000195141324608
:100450002B4603B0BDE8F04F00F04AB900980122E6
:1004600040000023D0EB020263EBE07300982146CA
:100470004FEAE074B8EB000061EB0401E9E783F0B8
:1004800000435BE781F0004158E72DE9FE4F81EA28
:10049000030404F0004421F0004100944FF0000BED
:1004A00023F0004350EA01045ED052EA03045BD01B
:1004B000C3F30A54C1F30A552C44A4F2F334019453
:1004C000A0FB0254C1F3130141F48011C3F31303E1
:1004D00043F4801301FB024400FB034E840A970A95
:1004E00044EA815447EA8357A4FB076802958D0AC2
:1004F00005FB07854FEA932C04FB0C542705029D4E
:100500004FEA065847EA1637B5EB08056EEB070CBD
:10051000870E920E47EA811742EA8312A7FB020177
:10052000B6EB0B0164EB00042B0D43EA0C335E18B1
:1005300044EB1C50DA465146E7FB0201C5F31304B5
:100540004FEA0B3343EA14534FEA0432019C43EA67
:100550000603A4F10C040294009CCDE900B400F061
:10056000D6F803B0BDE8F08F00200146F9E70EB5DC
:10057000C10F80EAE0700844CA07002140F233430B
:100580008DE80E000A460B4600F0C1F803B000BD2E
:10059000C1F30A5210B5C1F3130140F2FF3341F425
:1005A00080119A4201DA002010BD40F233439A4292
:1005B000A2F2334203DC524200F041F810BD9040F9
:1005C00010BD00F0004230F000400AD0C10D01F52E
:1005D0006071C0F3160042EA0151C208400711439E
:1005E000704700200146704701F0004330B421F00D
:1005F000004150EA010206D00A0DA2F56072C1F373
:100600001301002A02DC30BC00207047440F44EA8A
:10061000C104C100E01830BC00EBC25000F031B89A
:10062000202A04DB203A00FA02F1002070479140B2
:10063000C2F1200320FA03F3194390407047202AA7
:1006400004DB203A21FA02F00021704721FA02F37C
:10065000D040C2F120029140084319467047202A39
:1006600006DBCB17203A41FA02F043EAE07306E0DA
:1006700041FA02F3D040C2F12002914008431946EA
:1006800070470029A8BF7047401C490008BF20F0F0
:100690000100704710B4B0FA80FC00FA0CF050EA88
:1006A000010404BF10BC704749B1CCF1200421FA09
:1006B00004F411FA0CF118BF012121430843A3EB04
:1006C0000C01CB1D4FEA00614FEA102042BF002011
:1006D00010BC704700EBC35010440029A4BF10BCED
:1006E0007047401C490008BF20F0010010BC704753
:1006F00010B5141E73F1000408DA401C41F100012A
:1007000092185B411A4301D120F0010010BD2DE980
:10071000F04D92469B4611B1B1FA81F202E0B0FA77
:1007200080F220329046FFF77BFF04460F4640EAF6
:100730000A0041EA0B0153465A46084313D01146BA
:1007400053EA010019D0C8F140025046FFF777FF85
:1007500005460E46504659464246FFF761FF08439C
:1007600005D0012004E020463946BDE8F08D002088
:10077000054346EAE0762C4337430A986305E40ACA
:10078000A0EB08000022FD0A44EA47540A3002D5D3
:1007900000200146E9E7010510196941DDE9084536
:1007A00000196941BDE8F04DA2E72DE9F04D81EA5D
:1007B000030404F0004B21F0004514464FF0000AFA
:1007C00023F0004150EA050220D054EA01021DD076
:1007D000C5F30A570246C5F31303C1F31300C1F36F
:1007E0000A5640F4801543F48013A7EB0608101B4B
:1007F000D64608F2FD3873EB050002D308F1010874
:1008000001E092185B41B8F1000F03DA00200146C5
:10081000BDE8F08D00204FF48011064684460EE0BE
:10082000171B73EB050705D3121B63EB0503064388
:100830004CEA010C49084FEA300092185B4150EA3B
:100840000107EDD152EA030012D082EA040083EAE4
:100850000501084305D0101BAB4106D2012200233D
:1008600006E000224FF0004302E06FF00102531057
:100870001AEB06004CEB085110EB0A0041EB0B01A0
:10088000BDE8F04DFFF734BF70B521F000430343DE
:100890000CD0C1F30A550024D5EB040564EB040326
:1008A000D617AD1AB34102DB0020014670BD2018F7
:1008B00041EB025170BD00002DE9F041054621F0E9
:1008C00000400C46284309D0C4F30A5040F233419B
:1008D000884205DD28462146BDE8F0812846FBE731
:1008E00040F2FE31884210DC0CDB4FEA043040EA73
:1008F000155050EA053105D0104804F0004101437D
:100900000020E9E700200146E6E7A0F23340464236
:10091000C6F1400228462146FFF782FE0746884678
:10092000284621463246FFF78AFE43463A46FFF7FD
:10093000DFFE3246BDE8F041FFF772BE0000F03F37
:1009400030B5041E71F1000404DB4FF00044404256
:1009500064EB0101141E73F1000405DB1C464FF02B
:100960000043524263EB04038B4208BF824230BD16
:1009700030B5041E71F1000404DB4FF00044404226
:1009800064EB0101141E73F1000405DB1C464FF0FB
:100990000043524263EB0403994208BF904230BDCA
:1009A000002801DBC0F10040002901DBC1F100415A
:1009B000814202D24FF0004004E04FF0005001D1DC
:1009C0004FF0C0404FEA2062EFF3008162F31F61F5
:1009D00081F3008870470000064C074D06E0E06890
:1009E00040F0010394E8070098471034AC42F6D376
:1009F000FFF7CEFBC0130208E01302082DE9F04D0B
:100A000000231A461B1A8A4103DB00200146BDE879
:100A1000F08DC1F30A52C1F3130141F480154FF078
:100A2000000BD10702D100186D41521E0027044669
:100A300040F2FF11384601EB620A3E46804602460C
:100A400000204FF48011FFF7FAFDC2197141BB1865
:100A500046EB0100B4EB030C75EB000C04D3E41A75
:100A600065EB000517460E46241908F101006D419B
:100A700080463428E3DDF91946EB0600091BA8413E
:100A800003D24FF0FF32134601E0002213461BEB66
:100A9000070046EB0A51BDE8F04DFFF729BE0EB541
:100AA00040F2334102910021CDE900110A460B4684
:100AB000FFF72DFE03B000BD70B5C1F30A5201F07F
:100AC00000450024C1F3130140F2FF3341F48011CB
:100AD0009A4201DA002070BD40F233439A42A2F2FA
:100AE000334203DC5242FFF7AAFD00E090402C4362
:100AF000F1D0404270BD70B58C1810F8015B15F054
:100B0000070301D110F8013B2A1106D110F8012B7F
:100B100003E010F8016B01F8016B5B1EF9D12B07A4
:100B200005D40023521E0DD401F8013BFAE710F85A
:100B3000013BCB1A921C03E013F8015B01F8015B47
:100B4000521EF9D5A142D8D3002070BD10B5014680
:100B5000806B026C12F0500F05D0026CD20626D5C5
:100B600000F0EAFD10BD016C41F400710164016800
:100B70008A6812F0405F17D1027EAAB9CA6A12F4DD
:100B8000700F02D08A6852050ED44A6822F0200203
:100B90004A60016C21F480710164016CC90403D4C2
:100BA000016C41F00101016400F0C4FD10BD806BD7
:100BB000C26CBDE810400846104710B5806B40215C
:100BC0000164416C41F00401416400F0B5FD10BDC9
:100BD00010B5806B00F0AFFD10BD0000464910B5A8
:100BE0004A6822F440324A604A6843681A434A60BD
:100BF00001684A6822F480724A6001684A680369A1
:100C000042EA03224A6001684A6822F040724A6060
:100C100001684A6883681A434A6001688A6822F456
:100C200000628A6001688A68C3681A438A60816AC0
:100C30006FF07062D14201688A6822F070628A6047
:100C400001688A680CD0836A1A438A6001688A68DE
:100C500022F040528A6001688A68C36A1A4301E040
:100C600022F040528A6001688A6822F002028A609B
:100C700001688A68037E42EA43028A6090F8201085
:100C8000002901684A680FD042F400624A60016896
:100C90004A6822F460424A6001684A68174C436A15
:100CA00004EB43331A4301E022F400624A60016816
:100CB000CA6A22F47002CA620168CA6A838B104C45
:100CC00004EB03531A43CA6201688A6822F4007273
:100CD0008A6001688A6890F8303042EA43228A606C
:100CE00001688A6822F480628A6001688A684069C3
:100CF00042EA8020886010BD0023014000E0FFFF31
:100D00000000F0FFA0220249024800F09DBD000053
:100D1000488A00209804002008B50FF03BFA0246EC
:100D20000020034600900348012100690FF0C8FB32
:100D300008BD00009C0200202DED048B92B0002520
:100D40008DF820500126DFED958A954F9FED959AFD
:100D5000DFF85492954CB0460DF1240B142103A8F2
:100D6000FFF7DAFA4FF0FF3208A938680FF080F881
:100D70000128F3D18DF80C809DF820004B2807D076
:100D80004A2808D0492809D04038C0B23EB107E00F
:100D900002260B2004E001260A2001E000260020A4
:100DA00006283AD006DC062868D2DFE800F0670C97
:100DB0001116242D072837D0082847D018284CD0E2
:100DC00019285BD14CE0B1EE040A0BF053FE21E090
:100DD000B1EE040A0BF04EFE13E0022E04D1B0EE89
:100DE000490A0BF047FE27E0B1EE040A0BF042FE81
:100DF000B1EE400A27E0B1EE040A0BF03BFEB1EE83
:100E0000400A8DED050AEFE7B1EE040A0BF032FE61
:100E1000B1EE400A8DED050A26E0B1EE040A0BF0B2
:100E200029FEB1EE400A15E0022E08D1B0EE490AC3
:100E30000BF020FEB1EE400A8DED060A14E0B1EE93
:100E4000040A0BF017FE8DED040A0DE0B1EE040A62
:100E50000BF010FE8DED050AF1E79FED550A01E05C
:100E60009FED540A8DED070A029507980DF10C0CC1
:100E7000019500909CE80F0009F09CF99DF8201066
:100E80007B2915D07D2920D02078012812D0022876
:100E90007FF464AF99F803104846502918D05729B9
:100EA00019D042784D2A19D0232A37D0607830E003
:100EB00084F8008060783222B0FBF2F302FB130367
:100EC000401C09F80310607048E702202070E1E739
:100ED00005F007FD5AE005F003FD57E0312906D083
:100EE000322907D03329E1D100F0C6FA4EE005F0EF
:100EF0005FFE4BE005F09AFE48E06178081AFFF7C4
:100F000036FB41EC110B9FED2C0B0AF021F8A07879
:100F1000401EA070C0B20428EFD237E0B0EE688A5D
:100F20004FF0000A242109A8FFF7F6F9607832286B
:100F30002CD87D2109F800104B460020B2EE040A9F
:100F4000DC461CE0A2F1300109290AD800EE901A13
:100F5000B0EE481AF8EEE00AB0EE608A01EE008AC0
:100F60000BE03A2A09D10CEB8A0181ED008A0AF1E3
:100F7000010101F0FF0AB0EE688A401CC0B21A5CA1
:100F80007D2ADFD10BEB8A0080ED008A2570657029
:100F9000A57032210448FFF7BFF9DFE6000000002A
:100FA0003C000020000070429496002018020020AF
:100FB0000AD7233C0AD723BC0000000000002440CD
:100FC000FEE7000000221021014801F039B90000BD
:100FD0000000024001221021014801F031B9000057
:100FE0000000024070B50D4D28688047C8200EF003
:100FF0007FFA686880474FF496700EF079FA002403
:10100000A868804719200EF073FA641CE4B21E2C05
:10101000F6D36868BDE8704000470000F800002083
:101020001021014801F004B900000240014800F01D
:1010300011BD00006C090020014800F00BBD00004C
:101040002C0A0020014800F005BD00000C0900201A
:10105000014800F0FFBC0000CC090020014800F06E
:10106000F9BC0000E0040020014800F0F3BC0000DF
:1010700024060020014800F0EDBC0000840600209A
:10108000014800F0E7BC0000E4060020014800F041
:10109000E1BC00004407002001681823CAB2103ADE
:1010A000B2FBF3F2054B6FF30901032A9B5CC365A6
:1010B00000D9091D81650846704700004C050208EB
:1010C00010B5014600208B698A6A4FF0C07453B195
:1010D000B3F5005F15D072B1012A0CD0022A0AD0F4
:1010E000032A09D104E01AB1012A06D0022A03D149
:1010F000C96AC90100D5012010BDC96AA142FAD050
:1011000010BD002AF7D0012AF2D0022AF3D0032A18
:10111000F3D010BD30B50468256825F4802525601E
:10112000046863608368402B036803D0996000689B
:10113000C26030BD9A600068C16030BD70B50446C1
:101140000021084604EB8102491CC2F888051029D9
:10115000F8D300224FF48065A118521C81F81C01BD
:10116000AA42F9D3207060700121A170C4F8C805AB
:1011700021764022A271607684F81C0584F81D1542
:1011800084F81F0584F81E05090204F11C00FFF70E
:10119000C3F8294604F58E70FFF7BEF8122104F259
:1011A0002650FFF7B9F83E2104F5A760FFF7B4F821
:1011B000002070BD704710F0FF0100D00121001425
:1011C00041EA400080EA101181EA102101F00F018C
:1011D00041EA001080B270474FF4805000F024BF05
:1011E00072B6FEE7002229B101291AD002291BD0CC
:1011F0004FF440720E490B6823F440730B600B6888
:1012000013430B600A6822F0F8020A600A6802239E
:1012100003EBC00002430A60086840F480300860B5
:1012200070474FF48072E5E74FF40072E2E7000088
:10123000103C02401348016889050FD5016821F46C
:1012400000710160016841F400610160016821F4EE
:1012500000610160016841F40071016001684905A5
:101260000FD5016821F480610160016841F480516B
:101270000160016821F480510160016841F48061DE
:1012800001607047003C024008490A6822F440723D
:101290000A600A6842F004020A600A684FF4803368
:1012A00043EA002002430A6070470000103C0240FD
:1012B000064A136823F440731360136813601368BD
:1012C00043F001031360017070470000103C0240BE
:1012D000094910B50C6824F440740C600C6844F49F
:1012E00040740C600C6844F001040C600260BFF3B1
:1012F0006F8F436010BD0000103C0240074A136826
:1013000023F440731360136843F48073136013680D
:1013100043F001031360018070470000103C02405D
:10132000074A136823F440731360136843F400738F
:101330001360136843F001031360016070470000FD
:10134000103C024017490868C206174805D5C26913
:1013500042F01002C26110220A600A68920605D5A6
:10136000C26942F00802C26120220A600A6852067D
:1013700005D5C26942F00402C26140220A600A68CF
:10138000120605D5C26942F00202C26180220A60DB
:101390000A68920705D5C26942F02002C2610220A4
:1013A000086070470C3C0240D40A002070B5114917
:1013B00004460020C86100F049FF06460E4D09E0D2
:1013C000601C07D024B100F041FF801BA04201D96E
:1013D000032070BD2868C003F2D42868C00701D07C
:1013E00001202860286810F0F200F2D0FFF7AAFF71
:1013F000012070BDD40A00200C3C024008B59FEDCE
:101400001C0A1C49012806D002280BD0032812D040
:10141000042817D01EE00BF02DFBD1ED0E0A30EEA4
:10142000200A05E00BF026FBD1ED0E0A30EEC00AD3
:1014300081ED0E0A0EE00BF01DFBD1ED0F0A30EE30
:10144000200A05E00BF016FBD1ED0F0A30EEC00AC2
:1014500081ED0F0A0EF09EFE02460020034600902A
:1014600004480121803000690FF02AF808BD00000F
:10147000CDCC4C3E1C02002038B51348C17AA1B136
:101480000021C1721148104D0024803500680029E8
:101490004FF001010BD00EF034FA0EF07BFE024645
:1014A000002300940121A8690AE00121E9E70EF078
:1014B000EDF90EF06FFE0246009400230121286929
:1014C0000EF0FEFF38BD00001C020020400000208E
:1014D000F8B5164C002120680EF0D8F9400723D447
:1014E0001349087B98B10020114E002580360873FF
:1014F000002820684FF400410BD00EF0C7F90EF021
:1015000049FE024600230095012130690AE00120CE
:10151000EAE70EF0F6F90EF03DFE024600950023D4
:101520000121B0690EF0CCFFF8BD000040000020A2
:101530001C0200203EB51548002100680EF0A6F9F7
:10154000400721D41248002590ED0E0A10EE101A23
:10155000019190ED0F0A10EE100A02900DF0F0FECE
:10156000022101A808F04CFA04460DF009FF012CF5
:101570000AD10EF00FFE0246054800958030002388
:10158000012140690EF09CFF3EBD0000400000209C
:101590001C02002038B5124C042120680EF076F9A8
:1015A0000EF0F8FD02460020034600900D48012190
:1015B00000690EF085FF0B498039487B50B100204F
:1015C0004873002820684FF4804105D0BDE83840BA
:1015D0000EF097B90120F3E7BDE838400EF056B998
:1015E000400000209C02002078B50024009490F870
:1015F0003C20012A19D0012280F83C200A680723E8
:101600000568092A13D9EE680A3A02EB42029340B0
:101610009E43EE600B788A680A3B03EB43039A40D3
:101620000368DD682A43DA6010E0022078BD2E6985
:1016300002EB420293409E432E610B788A6803EBD3
:1016400043039A4003681D692A431A614A681F23AD
:10165000072A13D205686E6B521E02EB820293407A
:101660009E436E630B790A885B1E92B203EB830381
:101670009A4003685D6B2A435A6327E005680D2A88
:1016800012D22E6BD21F02EB820293409E432E6336
:101690000B790A88DB1F92B203EB83039A4003683D
:1016A0001D6B2A431A6311E0EE6A0D3A02EB8202C7
:1016B00093409E43EE620B790A880D3B92B203EB96
:1016C00083039A400368DD6A2A43DA62164B056891
:1016D000144A9D4206D10D68122D03D1556845F478
:1016E0008005556005689D4218D10B68102B01D00C
:1016F000112B13D1536843F4000353600968102978
:101700000CD10A490A4A0968B1FBF2F101EB8101E7
:10171000490000E0491E00910029FBD180F83C40BF
:10172000002078BD0023014000200140540000202B
:1017300040420F0070477047704770B504004FF08B
:10174000000503D0206C002610B107E0012070BD19
:10175000204600F01DF8666484F83C60206CC006EA
:1017600010D4206C20F4885040F002002064204601
:10177000FFF734FA6664206C20F0020040F00100AC
:10178000206400E0012584F83C60284670BD00001C
:1017900070B586B0064614216846FEF7BDFD2449A3
:1017A0003068884242D123480025016841F48071A5
:1017B000016000681F4900F48070143905900868C2
:1017C00040F001000860086800F00100059008681A
:1017D00040F0020008600868032400F00200059051
:1017E00080208DE831006946134800F029FC022072
:1017F0008DE831006946114800F022FC114C104878
:10180000C4E900050015A560C4E90350400060610B
:101810008000A0614011C4E907052046656200F020
:10182000E9F908B1FFF7DCFCB463A66306B070BD4C
:101830000020014044380240000002400004024001
:1018400010640240E0040020F8B5044600200E4673
:10185000009094F83C10012907D0012184F83C1035
:1018600021688B68DB0702D011E00220F8BD8B688D
:1018700043F001038B604049404B0968B1FBF3F131
:1018800001EB410100E0491E00910029FBD12168D4
:101890008B68DB0503D58B6823F480738B6021682C
:1018A0008B68DB075DD0236C40F20165AB4343F4EA
:1018B000807323644968490505D5216C21F40051E2
:1018C00041F480512164216CC90404D5616C21F07C
:1018D0000601616400E0606484F83C00A16B294863
:1018E000274DC863A16B28480864A16B2748C864CA
:1018F00021686FF0220008602068416841F0806133
:1019000041602068816841F48071816021681346DC
:1019100032464C31A06B00F0D7F968681C49C0060C
:10192000206806D0884224D1816811F0405F13D02E
:101930001FE08842F8D0174A904203D1D1F804231F
:10194000D206F1D0144A904213D1D1F8041301F019
:101950001F011029E8D30CE0816841F080418160CB
:1019600007E0206C40F010002064606C40F0010043
:1019700060640020F8BD00005400002040420F00C9
:10198000002301404D0B0108D10B0108BB0B0108DE
:101990000020014000210140002201402DE9F041DA
:1019A0000446876D00F052FC064694F83500002589
:1019B000022806D08020606584F834500120BDE8FC
:1019C000F0812068016821F01601016020684169FA
:1019D00021F080014161206C08B9A06C20B1206821
:1019E000016821F0080101602068016821F001010F
:1019F00001600CE000F02AFC801B052807D920209C
:101A00006065032084F8350084F83450D7E72068F7
:101A10000068C007EED194F85C103F208840B860A1
:101A2000012084F8350084F834500020C7E790F88E
:101A30003510022903D0802141650120704705211E
:101A400080F835100068016821F001010160002074
:101A5000704700002DE9F84304464FF00009CDF827
:101A6000009063484FF41651A56D0068B0FBF1F784
:101A70002E6894F85C10082000FA01F131420FD072
:101A800021680A6852070BD50A6822F004020A602E
:101A900094F85C108840A860606D40F001006065BB
:101AA00094F85C104FF0010808FA01F0304208D0B9
:101AB00021684969090604D5A860606D40F00200FC
:101AC000606594F85C1004208840304208D021689A
:101AD0000968890704D5A860606D40F0040060655E
:101AE00094F85C1010208840304218D021680968B2
:101AF000090714D5A86020680168490304D5006867
:101B0000000308D5A16C07E00168C90503D401688A
:101B100021F008010160216C09B12046884794F842
:101B20005C1020208840304231D021680968C90605
:101B30002DD5A86094F8350005282068016806D0E6
:101B4000490347D5006800031DD4616C1CE021F0F7
:101B5000160101602068416921F080014161206C1B
:101B600008B9A06C20B12068016821F0080101606B
:101B700094F85C103F208840A86084F8358084F891
:101B80003490216D1FE0E16B09B120468847606DFC
:101B900000282BD0606DC00714D0052084F83500D4
:101BA0002068016821F0010101600098401C00904C
:101BB000B84203D820680068C007F6D184F83580A1
:101BC00084F83490E16C002910D001B02046BDE8C3
:101BD000F04308470168C905D5D4016821F0100118
:101BE000016084F8358084F83490CCE7BDE8F88350
:101BF000540000202DE9F041044600F027FB064682
:101C00005CB1022084F83500002584F83450206847
:101C1000016821F0010101600DE00120BDE8F081C3
:101C200000F014FB801B052805D9202060650320E7
:101C300084F83500F2E720680068C007F0D1226818
:101C4000116820480140D4E901031843D4E9033660
:101C50003343184363691843A3691843E36918437E
:101C6000236A18430843616A042903D1D4E90B139A
:101C700019430843106020684069666A20F0070134
:101C800030460E43012704280CD1A06A0643E06ABF
:101C900040B12046FFF714FA20B14020606584F877
:101CA0003570BAE7206846612046FFF7F5F994F8E9
:101CB0005C203F2191408160656584F8357000208B
:101CC000ACE700003F8010F02DE9F0410446866D3E
:101CD00090F83400002501280DD0012084F834004C
:101CE00094F835700020012F07D084F834000225C5
:101CF0002846BDE8F0810220FBE7022784F8357012
:101D000060652046FFF706FA94F85C103F20884093
:101D1000B0602068016841F016010160206C20B1BC
:101D20002068016841F0080101602068016841F005
:101D300001010160DCE7000070B5044600F086FA9E
:101D40000546601C02D004480078044400F07EFA86
:101D5000401BA042FAD370BD480000202DE9F04797
:101D6000044622480F46017E01290AD001218046FF
:101D700001764CF250394846FFF718FB020003D0B9
:101D80002FE00220BDE8F0874FF0FF303860206878
:101D9000174D012801D0A6681CE0207C6168FFF780
:101DA00073FA4846FFF702FB0246286820F0040059
:101DB000286014E0217C3046FFF714FA4846FFF70C
:101DC000F5FA0200286820F0FA00286001D03E6091
:101DD00005E0761CD4E902100844B042EAD8FFF7C7
:101DE00029FA002188F818101046CBE7D40A002001
:101DF000103C02400148C06970470000D40A00202E
:101E00000348016841F00041016000207047000074
:101E1000103C02402DE9F0471B4E05461446307E2B
:101E20001F468946012808D0012030764CF25038F0
:101E30004046FFF7BBFA18B114E00220BDE8F08776
:101E40009DB1012D16D0022D19D022463B464846A1
:101E5000FFF73EFA4046FFF7A9FA0C490A6822F05C
:101E600001020A6000213176E8E7E1B24846FFF757
:101E70001FFAEFE7A1B24846FFF740FAEAE721462A
:101E80004846FFF74DFAE5E7D40A0020103C02402F
:101E9000074900200A68002A09DA054A054B0C3A6E
:101EA0001360054B13600968002900DA01207047B0
:101EB000103C024023016745AB89EFCD2DE9F04F7F
:101EC0000022DFF838B101264FF00F0906FA02F4BC
:101ED00001EA0403A3427DD122F003075F44D7F84F
:101EE000088895074FEA157C09FA0CFA0AEA0805F2
:101EF000DFF80C81404502D14FF0000832E0DFF8F6
:101F00000481404502D14FF001082BE0DFF8F88052
:101F1000404502D14FF0020824E0DFF8F080404550
:101F200002D14FF003081DE0DFF8E480404502D104
:101F30004FF0040816E0DFF8DC80404502D14FF096
:101F400005080FE0DFF8D080404502D14FF00608C9
:101F500008E0DFF8C880404502D14FF0070801E0F3
:101F60004FF0080808FA0CF8A84522D12C4DD5F8F6
:101F700000C02CEA030CC5F800C005F1040CDCF825
:101F800000509D43CCF80050254D0C35D5F800C0CD
:101F90002CEA030CC5F800C02D1FD5F800C02CEAB0
:101FA000030CC5F800C0D7F8085825EA0A05C7F899
:101FB0000858056857000323BB409D430560D508BA
:101FC00000EB8505D5F820C057074FEAD76809FA16
:101FD00008F700E00CE02CEA070CC5F820C0C56843
:101FE0009D43C5604568A543456084689C43846003
:101FF000521C102AFFF46AAFBDE8F08F0030014098
:10200000000002400004024000080240000C0240B0
:10201000001002400014024000180240001C024060
:10202000003C014070470000044910B50A680242B4
:1020300002D00860FFF7F6FF10BD0000143C01401D
:102040002DE9F84FDFF8BCA10022012503264FF04F
:102050000F090AF1040BAAF1040E00BF0B6805FA80
:1020600002F42340A34270D10F7907F00307012F38
:1020700001D0022F16D187684FEA420806FA08FC01
:1020800027EA0C07D1F80CC00CFA08FC4CEA070C44
:10209000C0F808C04768A7430C79C4F30014944003
:1020A0003C4344600C79E443A4070AD0C4684FEA77
:1020B000420C06FA0CF7BC438F6807FA0CF727436B
:1020C000C7600C7904F00304022C12D1D40800EB91
:1020D000840CDCF820405707FF0E09FA07F824EAC1
:1020E0000804D1F8108008FA07F848EA0408CCF888
:1020F000208004684FEA420C06FA0CF7BC430F79C3
:1021000007F0030707FA0CF7274307604C6814F43D
:10211000403F70D03C4C276847F4804727602468D4
:1021200022F0030704F480440094384C07EB040CBD
:10213000DCF8084897074FEA177809FA08F7BC4314
:10214000334FB84202D1002724E054E0314FB84267
:1021500001D101271EE0304FB84201D1022719E01A
:102160002E4FB84201D1032714E02D4FB84201D1C0
:1021700004270FE02B4FB84201D105270AE02A4F70
:10218000B84201D1062705E0284FB84201D1072700
:1021900000E0082707FA08F72743CCF80878DAF8B0
:1021A00000405746D1F804C09C435FEACC2C00D5D0
:1021B0001C433C60DBF800405F46D1F804C09C4300
:1021C0005FEA8C2C00D51C433C60DEF8004077466B
:1021D000D1F804C09C435FEA8C3C00D51C433C60B2
:1021E000084F083F3C68D1F804C09C435FEACC3CF0
:1021F00000D51C433C60521C102AFFF42FAFBDE8F1
:10220000F88F0000083C0140443802400030014093
:10221000000002400004024000080240000C02409E
:10222000001002400014024000180240001C02404E
:10223000426921EA02030A4043EA02418161704790
:102240000AB1816170470904FBE70000014880681A
:102250007047000048000020D0F8DC0306F05DBBAA
:10226000D0F8DC0306F06EBB006807F00FB800681A
:1022700007F010B8C1EB011100EB8100002200F85B
:102280001A2F4270C272827210467047C1EB011160
:1022900000EB810090F84C007047C1EB011100EB9E
:1022A0008100806B704710B5044690F8D403012874
:1022B00009D0012084F8D403206806F0F6FF00203E
:1022C00084F8D40310BD022010BD2DE9FF4F83B068
:1022D0000546DDE9117690F8D403DDF84080934699
:1022E0008A4601281CD0CAEB0A11012305EB8104A0
:1022F00085F8D4334FF0000984F8199006982075BA
:1023000084F815A084F826700BF07F00A075514664
:102310002846FFF7AFFF5FEA0B6005D5E37505E0E0
:10232000022007B0BDE8F08F84F81790286806F007
:10233000B1FF012F06D1B8F1010F03D110B9BC2EA6
:1023400000D9BC2684F81880B0B22085CDF8008072
:10235000CDE9017028685A465146069B07F010F8EF
:1023600085F8D493DDE7D0F8DC0306F063BB2DE9F4
:10237000F0030E46DDE906C9DDE90874C1EB06117C
:1023800000EB81010225CA7581F82630BCF1000FEF
:102390000AD081F82A50002463B1012B31D0022BDE
:1023A00028D0032B16D125E04FF0030881F82A80AE
:1023B0004C76F0E7BCF1010F0CD11AB18A7E012AEC
:1023C00019D007E0D7B9012281F83D2000E0C2B161
:1023D00081F82A50C1F82C904F6381F84C408C63EF
:1023E0004E7581F84D4082790068BDE8F0031431E4
:1023F00007F056B812B191F83C20E8E791F83D207B
:10240000E5E781F82A40E5E72DE9F0410668044652
:10241000304606F046FF012877D1206807F0FCF926
:10242000002872D0206807F0F7F9800203D52168F0
:102430004FF400104861206807F0EEF9C00203D5A0
:1024400021684FF480104861206807F0E5F94001E9
:1024500003D521684FF080604861206807F0DCF9FF
:10246000800702D5216802204861206807F0D4F96E
:10247000800018D521684FF000504861D6F840041C
:10248000C00710D11021304606F0E2FE304606F0BB
:10249000C3FE607A022803D10121206807F098F971
:1024A0002046FFF7DDFE206807F0B6F9C00102D52F
:1024B000204602F03CFD206807F0AEF9000705D584
:1024C000204600F0C8F8216808204861206807F01D
:1024D000A3F9800124D5206806F0DEFF0746002519
:1024E0004FF0010815E000BF05F00F0108FA01F0F8
:1024F00038420DD006EB4510D0F80005E9B20004D3
:10250000204603D502F0E4F902E01CE002F09EFB55
:102510006D1C6079A842E7D821684FF000704861CF
:10252000206807F079F9C043C0060CD4206881699F
:1025300021F010018161204602F043FD206881698D
:1025400041F010018161BDE8F081F8B5040005D0CB
:1025500094F8D5032568002610B106E00120F8BDE7
:1025600084F8D463204600F029F8032084F8D503CA
:10257000B5F1A04F00D1A671206806F019FE207CAD
:102580008DF8000094E80F0006F0B2FD022560B956
:102590000121206807F07CF938B9207C8DF8000013
:1025A00094E80F0007F0ACF810B184F8D553D5E7E4
:1025B000012084F8D5030020F8BD000010B586B0D6
:1025C000044614216846FDF7A7FE2068B0F1A04F2D
:1025D0002FD119480021026842F001020260006810
:1025E00000F0010005904FF4C05000900220CDE9AA
:1025F0000101032003900A20049069460F48FFF769
:102600001FFD0D48001D016841F0800101600A486E
:102610001430016841F4804101600068002200F438
:10262000804005900521432000F016FD432000F076
:1026300005FD06B010BD0000303802400000024029
:10264000D0F8DC0306F013BAD0F8DC0306F013BAB6
:10265000006807F004B9D0F8DC0306F0B3B910B590
:10266000044690F8D40301280DD0012084F8D40347
:102670000121206806F0B4FD206806F0C7FD0020A7
:1026800084F8D40310BD022010BD10B5044690F8A4
:10269000D403012809D0012084F8D403206807F06E
:1026A00025F9002084F8D40310BD022010BD0000DD
:1026B00070B5040025D094F83D00002520B984F8B9
:1026C0003C50204600F0FCFB242084F83D002068AC
:1026D000016821F0010101602068016841F40041B6
:1026E00001602068016821F40041016000F0A0FD54
:1026F0004D4A6168914201D84C4900E04C498842FA
:1027000001D2012070BD4B492368B0FBF1F15E6836
:1027100026F03F060E435E606368934206D94FF48D
:10272000967359434FF47A73B1FBF3F12368491C54
:102730001E6A26F03F06314319626168914210D843
:102740004900401EB0FBF1F2521CC2F30B02042AF6
:1027500001D2042022E0B0FBF1F0401CC0F30B00DA
:102760001CE0A268F2B301EBC10303EB0116431EA8
:10277000B3FBF6F35B1C43F480431B0549D092B3D3
:1027800001EBC10202EB0111401EB0FBF1F0401C55
:10279000C0F30B0040F4804040F400402168CA6957
:1027A0004CF6FF739A431043C861D4E90710014304
:1027B0002068026822F0C00211430160D4E90301DD
:1027C00001432068826848F2FF339A4311438160D5
:1027D000D4E9050108432168CA6822F0FF021043CA
:1027E000C86001E00EE016E02068016841F00101D8
:1027F00001602564202084F83D00256384F83E5064
:10280000002070BD01EB4106431EB3FBF6F35B1CD9
:10281000B3E70120C2E701EB4101401EB0FBF1F03C
:10282000401CC0F30B00B7E7A086010080841E00A7
:1028300000093D0040420F002DE9F84F1F46904629
:102840008A460446DDF82890FFF700FD054694F817
:102850003D00202871D1192301227049204600959E
:1028600002F0CCFD0028F5D194F83C00012864D09A
:10287000012084F83C0020680168C90703D1016881
:1028800041F0010101602068016821F400610160EC
:10289000222084F83D00102084F83E0000262664A3
:1028A000C4F824806785608D20855D48E0622B46F2
:1028B0004A465146204602F0DFFB002876D1208DA3
:1028C000584F68B1012814D002282068016816D03A
:1028D00041F48061016020684169806900908EE068
:1028E0002068416981690091016841F400710160CB
:1028F00085E02068016821F480610160F0E721F43F
:10290000806101602068016841F40061E2E703280A
:1029100046D801280AD0022810D04B46002239465A
:102920002046009502F06AFDC8BB25E02A464946CC
:10293000204602F009FE90BB54E06CE04B460022BA
:1029400039462046009502F059FD40BB20680168D9
:1029500041F40071016020680069616A0870606A72
:10296000401C6062218D491E2185618D491E618553
:1029700021680969017039E02068016821F48061EB
:10298000016020680069616A0870606A401C6062CA
:10299000208D401E2085608D401E6085CEE705E0BD
:1029A0002A464946204602F0CFFD10B10120BDE87D
:1029B000F88F20680069616A0870606A401C606274
:1029C000208D401E81B22185608D401E608520686B
:1029D0004269D243520712D4032903D1016821F47A
:1029E0008061016020680069616A0870606A401C4B
:1029F0006062208D401E2085608D401E6085208D88
:102A0000002884D1202084F83D0084F83E6084F8BA
:102A10003C600020CBE70220C9E700000200100064
:102A20000000FFFF040001002DE9F84F1F4690460B
:102A30008A460446DDF82890FFF708FC054694F81E
:102A40003D0020287FD119230122404920460095CE
:102A500002F0D4FC002876D194F83C00012872D012
:102A6000012084F83C0020680168C90703D101688F
:102A700041F0010101602068016821F400610160FA
:102A8000212084F83D00102084F83E0000262664B2
:102A9000C4F824806785608D20852D48E0622B4630
:102AA0004A465146204602F05DFB90B920684169D4
:102AB0008069009036E02A464946204602F07CFDB7
:102AC00050B1206C042804D12068016841F40071E1
:102AD00001600120BDE8F88F606A21680078086114
:102AE000606A401C6062618D491E6185218D491EAE
:102AF00089B2218522685369DB435B070BD451B14E
:102B000000781061606A401C6062608D401E6085C4
:102B1000208D401E20852A464946204602F042FC70
:102B20000028CED1208D0028C5D154F83D0B016876
:102B300041F400710160202004F81E09E6776677F1
:102B40000020C7E7FFE70220C4E7000002001000F2
:102B50000000FFFF2DE9FF4F83B09A46DDE91187A2
:102B600093460446DDF84090FFF770FB054694F865
:102B70003D00202870D11923012274492046009578
:102B800002F03CFC0028F5D194F83C00012863D009
:102B9000012084F83C0020680168C90703D101685E
:102BA00041F0010101602068016821F400610160C9
:102BB000222084F83D00402084F83E000026266450
:102BC000C4F82490A4F82A80608D20856048E062D3
:102BD000CDE9007553465A462046049902F010FB91
:102BE000002879D1208DD0B1012821D00228206879
:102BF00024D0416980690090208D032866D801287F
:102C00002BD0544902283B464FF00002009557D084
:102C10008846204602F0F2FB00285DD13AE02068A9
:102C2000416981690091016841F4007101607DE0B2
:102C30002068016821F480610160F0E7016821F4F7
:102C4000806101602068016841F4006101602068D2
:102C500041698069009069E075E02A46394620465E
:102C600002F072FC88BB54E02068016841F40071F6
:102C7000016020680069616A0870606A401C6062D7
:102C8000218D491E2185618D491E61852168096953
:102C9000017042E02068016821F4806101602068D1
:102CA0000069616A0870606A401C6062208D401E85
:102CB0002085608D401E60853B4600224146009580
:102CC000204602F09BFB00B9CEE705E02A463946D4
:102CD000204602F039FC18B1012007B0BDE8F08FA2
:102CE00020680069616A0870606A401C6062208D1B
:102CF000401E81B22185608D401E6085206842693A
:102D0000D243520712D4032903D1016821F4806110
:102D1000016020680069616A0870606A401C606236
:102D2000208D401E2085608D401E6085208D0028EE
:102D30007FF462AF202084F83D0084F83E6084F880
:102D40003C600020C9E70220C7E700000200100035
:102D50000000FFFF040001002DE9FF4F83B09A46F9
:102D6000DDE9119793460446DDF84080FFF76EFADF
:102D7000054694F83D0020287FD1192301224049BF
:102D80002046009502F03AFB002876D194F83C00EA
:102D9000012872D0012084F83C0020680168C9072E
:102DA00003D1016841F0010101602068016821F44C
:102DB00000610160212084F83D00402084F83E003D
:102DC00000262664C4F82480A4F82A90608D20850B
:102DD0002C48E062CDE9007553465A4620460499D6
:102DE00002F08CFA70B930E02A463946204602F0EB
:102DF000E3FB58B1206C042804D12068016841F439
:102E000000710160012007B0BDE8F08F606A2168A1
:102E100000780861606A401C6062218D491E89B299
:102E20002185628D521E628522685369DB435B07F0
:102E30000BD469B100781061606A401C6062208D1B
:102E4000401E2085608D401E6085208D0028CBD1DE
:102E50002A463946204602F0A5FA0028CAD154F87D
:102E60003D0B016841F400710160202004F81E0947
:102E7000E67766770020C6E7FFE70220C3E7000099
:102E8000020010000000FFFF10B5006809498842E9
:102E90000FD10948016821F400110160074C40215D
:102EA0002046FFF70BF82046BDE810408021FFF7D1
:102EB00005B810BD005400404038024000040240F4
:102EC00010B586B0044614216846FDF725FA13496B
:102ED0002068884220D112480021026842F0020294
:102EE0000260006800F002000590C02000901220EF
:102EF000CDE90101032003900420049069460948AC
:102F0000FFF79EF806481030016841F40011016097
:102F1000006800F40010059006B010BD0054004099
:102F200030380240000402400248816802781144AF
:102F300081607047480000200B4810B5016841F4DB
:102F400000710160016841F480610160016841F431
:102F500080710160032000F09FF8002000F006F867
:102F600000F050F8002010BD003C024030B505468E
:102F70001F4887B00024016841F02001016000680B
:102F800006A900F02000009001A800F031F9049893
:102F9000A8B100F04DF940001649174AB0FBF1F115
:102FA0001648491E026040F2E732C0E90324C0E936
:102FB0000114846100F0B6FB040003D015E000F0BA
:102FC00037F9E9E70D4800F0B9FC04000DD13720CE
:102FD00000F034F8102D07D200222946372000F0E7
:102FE0003BF80748056000E0012407B0204630BDEB
:102FF0004038024040420F00001400408C0A00207C
:103000004C0000200C4882B0016841F4804101600E
:10301000006800F4804000900748001F016841F0FC
:10302000805101600068002200F0805000900F2164
:10303000901E02B000F010B844380240002809DBAE
:1030400000F01F02012191404009800000F1E020C2
:10305000C0F8001170470000F0B40E4B1B680C461E
:10306000C3F30223C3F10705042D00D90425191D5C
:10307000072901D2002300E0DB1E012606FA05F134
:10308000491E214099409E40761E16403143F0BCB7
:1030900007F02BB90CED00E0064900F007020868C4
:1030A0004FF6FF03184040EA0220034A104308602D
:1030B000704700000CED00E00000FA052DE9F04734
:1030C0000E46050065D0DFF81481D8F80000F7B28D
:1030D00000F00700B04207D288F80070D8F800006E
:1030E00000F00700B04254D128683D4C810712D54A
:1030F000400703D5206840F4E0502060287800079E
:1031000003D5206840F4604020602068A96820F062
:10311000F000084320602878C0072DD03049686847
:103120000839012812D0022813D0032811D00968C9
:10313000890700292DDA216821F00301014321606C
:10314000FFF784F8814641F2883A0EE00968890366
:10315000EFE709688901ECE7FFF778F8A0EB0901D0
:10316000514502D90320BDE8F0872068696800F066
:103170000C00B0EB810FEFD1D8F80010404601F001
:103180000701B14207D90770006800F00700B0429C
:1031900001D00120E7E72878400705D52068E968D5
:1031A00020F4E050084320602878000706D5206806
:1031B000296920F4604040EAC100206000F058F81E
:1031C0002168084AC1F30311515CC84006490860F0
:1031D00006480068FFF7CAFE0020C4E7003C024032
:1031E0000838024054050208540000204C0000201A
:1031F0000F2202600C4A136803F003034360136854
:1032000003F0F0038360136803F4E053C3601268B3
:103210004FF4E05303EAD20202610448006800F070
:10322000070008607047000008380240003C024078
:103230000448054900680968044AC1F38221515CC9
:10324000C840704754000020083802406405020856
:103250000448054900680968044AC1F34231515CD9
:10326000C840704754000020083802406405020836
:10327000154810B5006810F00C02144813D0411026
:10328000042A0FD0082A0ED10F4C241F226823686D
:1032900002F03F025B0207D52068C0F38810A0FB54
:1032A000010106E0084610BD2168C1F38811A1FBA9
:1032B00000010023FCF7E6FF2168C1F30141491C2E
:1032C0004900B0FBF1F010BD083802400024F400C2
:1032D0002DE9F84F04006ED02078DFF84C93C0073A
:1032E000A9F104054AD009F104000168C1F3810184
:1032F000012908D00068C0F3810002280AD1D9F85A
:103300000000400206D52868800337D56068002891
:10331000E1D033E06068B0F5803F10D0B0F5A02F69
:10332000286810D020F480302860286820F480209D
:1033300028606068A8B1FEF789FF06460DE028689E
:1033400040F48030F4E740F480202860F7E700BFC5
:10335000FEF77CFF801B642873D828688003F7D5AC
:103360000CE0FEF773FF064605E000BFFEF76EFFB8
:10337000801B6428F0D828688003F7D42078DFF811
:10338000AC8280074FF0000A3ED5A748001D0168B7
:1033900011F00C0F08D00068C0F3810002280BD197
:1033A000D9F80000400207D42868800716D5E068E5
:1033B000012800D112E033E1E068B8B10120C8F87B
:1033C0000000FEF743FF064605E000BFFEF73EFFA4
:1033D000801B0228C0D828688007F7D52868216993
:1033E00020F0F80040EAC10028600DE0C8F800A015
:1033F000FEF72CFF064604E0FEF728FF801B02289C
:103400001FD828688007F7D42078000722D5864F78
:1034100087486169703771B101210160FEF716FFBD
:10342000064604E0FEF712FF801B022809D8386820
:103430008007F7D50EE0C0F800A0FEF707FF0646AC
:1034400005E082E0FEF702FF801B02287DD8386885
:103450008007F7D42078400768D5DFF8CCB1002783
:103460000BF13C0BDBF80000C0000BD4DBF80010C4
:1034700041F08051CBF80010DBF80000012700F08C
:10348000805000906B4E3068C00510D4306840F416
:1034900080703060FEF7DAFE009005E0FEF7D6FEA1
:1034A0000099401A022850D83068C005F6D55E4E03
:1034B000A0686C3601280FD00528306810D020F0A5
:1034C00001003060306820F004003060A068B8B1BE
:1034D000FEF7BCFE00900FE0306840F00100F4E71A
:1034E00040F004003060F7E7FEF7B0FE0099411AA3
:1034F00041F28830814266D830688007F4D50EE00A
:10350000FEF7A4FE009007E0FEF7A0FE0099411A26
:1035100041F28830814256D830688007F4D42FB108
:10352000DBF8001021F08051CBF80010A069C8B37F
:103530003D49091D0968C1F3810102294AD00228C9
:10354000504607D0C8F8600000E03CE0FEF77EFE81
:1035500004463BE04746C8F86000FEF777FE0646A3
:1035600005E000BFFEF772FE801B02282BD82868FA
:103570008001F7D4D4E907010843A16A2E4A49081B
:1035800002EB0141626A41EA8211084394F82C106F
:1035900040EA0161C9F8001001203866FEF756FEC6
:1035A000044606E03EE000BFFEF750FE001B022886
:1035B00009D828688001F7D534E000BFFEF746FE41
:1035C000001B022802D90320BDE8F88F286880017B
:1035D000F4D427E00128F7D0D9F80000E26900F41C
:1035E000800191421CD1226A00F03F01914217D123
:1035F00047F6C071626A0140B1EB821F10D1A26A26
:103600004FF0FF3300F4403103EB5202B1EB024FB5
:1036100006D194F82C1000F07060B0EB016F01D06F
:103620000120D1E70020CFE70438024000004742E4
:10363000800E4742007000400000FFFF7047704757
:1036400010B590F83C20012A22D0012280F83C20BD
:10365000CA688C6822F4407222434C6822F480626B
:1036600022430C6822F4006222430C6922F4805247
:1036700022434C6922F400522243C969002322F4F8
:1036800080420A4301684A6480F83C30002010BD43
:10369000022010BD70B590F83C20012A32D00124E0
:1036A00080F83C40022280F83D2003685A689D68FB
:1036B00022F070060A6832435A60134B02689A423D
:1036C00014D0B2F1804F11D0104B9A420ED0104B53
:1036D0009A420BD00F4B9A4208D00F4B9A4205D01A
:1036E0000E4B9A4202D00E4B9A4204D1496825F003
:1036F00080031943916080F83D40002180F83C1020
:10370000084670BD022070BD00000140000400406A
:1037100000080040000C004000040140004001404F
:103720000018004010B5040003D094F83D0010B11B
:1037300007E0012010BD002084F83C00204600F086
:103740001FF8022084F83D00211D206803F05CFB77
:10375000012084F8460084F83E0084F83F0084F895
:10376000400084F8410084F8420084F8430084F863
:10377000440084F8450084F83D00002010BD00009E
:103780002DE9F84F054600684849002688420AD1CD
:103790004748016841F010010160006800F0100026
:1037A0000090BDE8F88F43498842FAD14048001D97
:1037B000016841F0020101600068404C00F0020025
:1037C00000904FF04008C4E902864FF4005BC4E962
:1037D00006B6266238484FF060676662C4E90007A3
:1037E0004FF4806A4FF40069C4E904A92046FEF74B
:1037F00001FA08B1FDF7F4FC6C62A5632F4C2E486A
:103800006034183084E88101C0146061C4E9036A3F
:10381000C4E906B6266220466662FEF7EBF908B1F7
:10382000FDF7DEFCAC62A563244C2348C034303085
:10383000C4F80880C4E900074FF4006A0015C4F812
:1038400014A0C4E90360C4E906B6B94626625F461F
:1038500020466662FEF7CEF908B1FDF7C1FCEC62C6
:10386000A563174C14487830C4F80880C4E90009EF
:103870000015C4F814A0C4E90360C4E90676266202
:1038800020466662FEF7B6F908B1FDF7A9FC2C6385
:10389000AC636C63002205212C20A563FFF7DCFBE1
:1038A000BDE8F84F2C20FFF7C9BB00000010004016
:1038B00040380240000401404064024024060020D9
:1038C0004407002090F83D10012901D001207047E5
:1038D000022180F83D1000681149884214D0B0F1EF
:1038E000804F11D00F4988420ED00F4988420BD02B
:1038F0000E49884208D00E49884205D00D498842B9
:1039000002D00D49884204D1816801F007010629DF
:1039100003D0016841F00101016000207047000000
:10392000000001400004004000080040000C00407E
:1039300000040140004001400018004090F83D1094
:10394000012901D001207047022180F83D10016853
:10395000CA6842F00102CA6000681149884214D066
:10396000B0F1804F11D00F4988420ED00E498842E5
:103970000BD00E49884208D00D49884205D00D4928
:10398000884202D00C49884204D1816801F00701C5
:10399000062903D0016841F0010101600020704751
:1039A000000001400004004000080040000C0040FE
:1039B00000040140004001400018004070B504467A
:1039C00090F83C000025012817D0012684F83C60BF
:1039D000022084F83D002068826822F0770222F4F9
:1039E0007F4282600868502838D00DDC20284FD0F4
:1039F00005DC90B3102811D14AE0022070BD3028B8
:103A000046D040280AD13BE060282FD070280DD046
:103A1000B0F5805F03D0B0F5005F12D0012584F8C7
:103A20003D60002084F83C00284670BDCB68D1E999
:103A30000121206803F0D6FA2068816841F07701FF
:103A400009E0CB68D1E90121206803F0CBFA2068B6
:103A5000816841F480418160E1E719E0CA68496802
:103A6000206803F093FB5021206806E0CA6849688B
:103A7000206803F09CFB6021206803F0BDFACEE7CC
:103A8000CA684968206803F081FB40212068F4E798
:103A9000226801461046F0E7704770472DE9F04173
:103AA00004460068C66805694FF00007A90713D5EA
:103AB000B10711D5F91E01610120207720688069C6
:103AC0008007204602D0FFF7E8FF04E000F0A8F8E6
:103AD000204600F03AF92777680716D5700714D505
:103AE00021686FF004000861022020772068806957
:103AF00010F4407F204602D0FFF7CFFF04E000F033
:103B00008FF8204600F021F92777280715D53007D0
:103B100013D521686FF00800086104202077206821
:103B2000C0698007204602D0FFF7B7FF04E000F02D
:103B300077F8204600F009F92777E80616D5F00651
:103B400014D521686FF010000861082020772068E4
:103B5000C06910F4407F204602D0FFF79EFF04E0CA
:103B600000F05EF8204600F0F0F82777E80708D06C
:103B7000F00706D021686FF001000861204600F0D0
:103B8000C7F9280608D5300606D521686FF08000F1
:103B900008612046FFF752FD680608D5700606D575
:103BA00021686FF040000861204600F0C5F9A806C2
:103BB0000AD5B00608D521686FF0200008612046BC
:103BC000BDE8F041FFF73BBDBDE8F08110B586B020
:103BD000044614216846FCF79FFB0E492068884282
:103BE00016D10D480021026842F00402026000680C
:103BF00000F0040005904FF4707000900220CDE9B1
:103C0000010103200390049069460448FEF718FA66
:103C100006B010BD000401403038024000080240E8
:103C2000704770B5044690F83C0000260D46012808
:103C30000FD0012084F83C006AB1042A1DD0082A64
:103C40002FD00C2A3FD00126002084F83C003046BB
:103C500070BD022070BD206803F0D6F9206881692C
:103C600041F0080181612068816921F004018161CE
:103C7000206881692A69114311E0206803F0F4F992
:103C80002068816941F4006181612068816921F4C3
:103C900080618161206881692A6941EA022181612C
:103CA000D2E7206803F016FA2068C16941F00801E4
:103CB000C1612068C16921F00401C1612068C16946
:103CC0002A69114311E0206803F038FA2068C169BD
:103CD00041F40061C1612068C16921F48061C16162
:103CE0002068C1692A6941EA0221C161ACE710B5C7
:103CF000040003D094F83D0010B107E0012010BD8E
:103D0000002084F83C00204600F01EF8022084F8D1
:103D10003D00211D206803F077F8012084F846005B
:103D200084F83E0084F83F0084F8400084F84100A5
:103D300084F8420084F8430084F8440084F8450085
:103D400084F83D00002010BD7047704770470000A8
:103D50002DE9F04117460D0004464FF000060CD047
:103D6000042D11D0082D16D094F84100022819D046
:103D700094F84100012818D07CE094F83E00022815
:103D800010D094F83E00F5E794F83F00022809D0DF
:103D900094F83F00EEE794F84000022802D094F82F
:103DA0004000E7E70220BDE8F081002F62D0002B41
:103DB00060D04D494D4ADFF838C102204DB1042D85
:103DC00018D0082D27D084F841000C2D44D00126AE
:103DD00087E084F83E00606AC163606A3946026425
:103DE000606AC0F84CC02268606A3432FDF76CFF2C
:103DF00088BB21E084F83F00A06AC163A06A39460D
:103E00000264A06AC0F84CC02268A06A3832FDF78C
:103E10005BFF00BB15E084F84000E06AC163E06A24
:103E200039460264E06AC0F84CC02268E06A3C325D
:103E3000FDF74AFF78B909E02068C16841F40071D4
:103E40001EE02068C16841F4806119E02068C16803
:103E500041F4006114E00DE0206BC163206B394632
:103E60000264206BC0F84CC02268206B4032FDF722
:103E70002BFF08B1012096E72068C16841F480510A
:103E8000C16001222946206803F02AF819492068F8
:103E9000194A884201D0904203D1436C43F4004355
:103EA00043642068884213D0B0F1804F10D013498A
:103EB00088420DD0124988420AD01249884207D060
:103EC000904205D01049884202D01049884204D15E
:103ED000816801F00701062903D0016841F0010162
:103EE000016030465FE70000FB6E0108596F010872
:103EF000916F0108000001400004014000040040EF
:103F000000080040000C0040004001400018004044
:103F100010B500680649884203D1BDE81040FFF79C
:103F200003B80449884201D105F0ECFD10BD000042
:103F30000014004000040140704738B5044690F872
:103F40004200202801D0022038BD61B15AB10120C1
:103F5000206300206063204603F01AFC0028F3D1A0
:103F6000216B012901D0012038BD21680A68496808
:103F7000009121680C3151E8002F42F0100241E815
:103F80000023002BF5D138BD08B500220092284A45
:103F9000904215D190F84200202841D125480023B5
:103FA0006A46A0F8C8100146234800680BF0F4FEEA
:103FB00010B9224880688047C8221E491C4817E073
:103FC0001F4A904217D190F84200202828D11D485E
:103FD00000236A46A0F8461001461B4800680BF013
:103FE000DBFE10B915488068804746221549144801
:103FF000FFF7A3FF09E0154A904212D190F8420062
:1040000020280DD1084601F0B7FC0098002807D001
:104010000F494FF080500860BFF34F8FBFF36F8F91
:1040200008BD0C498842FBD190F8420008BD000051
:10403000EC070020E07F00202C000020F80000208A
:104040007C0800201A82002030000020C4080020D4
:1040500004ED00E0A407002010B5044600684069A4
:1040600094F84110C0F3C010212911D180B120680B
:10407000143050E8001F21F0800140E80012002AAF
:10408000F5D1A06B08B1FDF789FC204603F08AFA50
:104090002068406994F84210C0F38010222911D1A1
:1040A00080B12068143050E8001F21F0400140E842
:1040B0000012002AF5D1E06B08B1FDF76FFC204635
:1040C00003F049FA002010BD70470000F8B5016800
:1040D00004460868CA684B6910F00F0F4FF00005DE
:1040E00059D003F0010602F49077374365D0C10739
:1040F00005D0D10503D5616C41F001016164410730
:1041000005D5D90703D0616C41F0020161648107D4
:1041100005D5D90703D0616C41F004016164010742
:1041200007D502F02001314303D0616C41F0080152
:104130006164616C00293AD0800604D5900602D5EE
:10414000204603F03DFA20684069616CC0F380109E
:10415000090700D460B3204603F0FDF920684069E8
:10416000400621D52068143050E8001F21F040019E
:1041700040E80012002AF5D1E06BA8B16E49016554
:10418000E06BFDF754FC002811D0E06B016D01B02D
:10419000BDE8F040084783060FD593060DD52046AD
:1041A000BDE8F84003F00CBA2046FFF78DFFF8BDDC
:1041B0002046FFF789FF6564F8BD266B2023012E9A
:1041C0007DD1C6067BD5D60679D5086848680090AB
:1041D00048694FF00206400641D5E16B0868406827
:1041E0000004000CE8D0A28D8242E5D9E085C869C0
:1041F000B0F5807F2DD020680C3050E8001F21F4EE
:10420000807140E80012002AF5D12068143050E88F
:10421000001F21F0010140E80012002AF5D12068BA
:10422000143050E8001F21F0400140E80012002A3D
:10423000F5D184F84230256320680C3050E8001F27
:1042400021F0100140E80012002AF5D1E06BFDF7E3
:10425000A5FB6663A08DE18D401A81B22AE0A08D96
:10426000E18D401A81B2E08D0028A5D00029A3D0AD
:1042700022680C3252E8000F20F4907042E80007E8
:10428000002FF5D12068143050E8002F22F00102F1
:1042900040E80027002FF5D184F8423025632068DC
:1042A0000C3050E8002F22F0100240E80023002BD1
:1042B000F5D166632046FFF767FEF8BDFFE7050608
:1042C0002BD5150629D594F841002128F5D1A068F1
:1042D000B0F5805F01D12069B0B1206A411C216234
:1042E000216800784860E08C401E0004000CE084E7
:1042F000E3D12068C16821F08001C1602068C168F5
:1043000041F04001C160D8E7206A0088C0F308008E
:104310004860206A801C2062E5E74006CDD5500643
:10432000CBD5CA68204622F04002CA6084F84130EA
:1043300000F0CCFAC1E700000D74010870B504006C
:1043400004D094F84100002510B106E0012070BDB2
:1043500084F84050204600F023F8242084F84100DF
:104360002068C16821F40051C160204603F08AF939
:104370002068016921F4904101612068416921F0C0
:104380002A0141612068C16841F40051C16065643F
:10439000202084F8410084F842006563002070BD4D
:1043A0002DE9F04F87B0054614216846FBF7B4FFAE
:1043B000A348A349DFF88482D5F800C0002410394F
:1043C000022203230827DFF87CB246054FF4406A37
:1043D0004FF48069C44537D1D0F800C04CF4002CAC
:1043E000C0F800C0006800F400200590086840F0A4
:1043F000040008600868CDF800A000F00400CDE9D2
:1044000004700393CDE9012469465846FDF718FE70
:104410008E4F8D48E7E802064020A7E811028B483E
:1044200047F81449BC61FC613C627C62FDF7E2FB29
:1044300008B1FCF7D5FEAF63002205213420BD632F
:10444000FEF70AFE342050E0DFF80482C44551D163
:10445000D0F800C04CF4801CC0F800C0006800F424
:1044600080100590086840F004000860086800F0BB
:1044700004000590086840F0080008600868CDE96D
:10448000024300F0080005904FF48050CDE900028F
:1044900092469846694604975846FDF7D1FD042098
:1044A000CDE9000ACDE90248694604976948FDF75D
:1044B000C7FD664F6448603760383860C7E90164FB
:1044C000C7E903497C61BC61FC613C6238467C629F
:1044D000FDF790FB08B1FCF783FEEF630022052196
:1044E0003520BD63FEF7B8FD3520FEF7A7FD07B008
:1044F000BDE8F08FDFF860810727DFF860B1C445C1
:1045000022D14F48001D056845F010050560006880
:1045100000F010000590086840F00100086008688D
:10452000694600F0010005904FF4C0608DE8150069
:10453000CDE903375846FDF783FD002205212520EC
:10454000FEF78AFD2520D0E7DFF81481C44539D174
:10455000D0F800C04CF4003CC0F800C0006800F483
:1045600000300590086840F001000860086869465E
:1045700000F0010005900C208DE81500CDE903370F
:104580005846FDF75DFD314F2F48C0371830386071
:10459000C7E90164C7E903497C614FF40030BC619D
:1045A000C7E9074038467C62FDF724FB08B1FCF7F9
:1045B00017FEEF63002208212620BD63FEF74CFDA5
:1045C000262092E7DFF89C80C44590D1D0F800C047
:1045D0004CF4802CC0F800C0006800F480200590E6
:1045E000086840F0020008600868CDF800A000F0FC
:1045F0000200CDE904700393CDE9012469461A480D
:10460000FDF71EFD1048194F48383860C7E90164AE
:10461000C7E903497C61BC61FC613C6238467C624D
:10462000FDF7E8FA08B1FCF7DBFDEF630022052196
:104630002720BD63FEF710FD272056E7004C004001
:104640004038024000080240706002400C0900201F
:1046500000500040000C02400010014000000240E9
:104660000044004000480040000402402C0A0020A2
:104670002DE9F84F044690F842009A4616460D463A
:10468000202802D00220BDE8F88FB5B1AEB10020DD
:104690006064222184F842102063FDF7D7FDA685CF
:1046A0008146E685A0684FF480582027404501D117
:1046B000206920B12E46002529E00120E3E70026ED
:1046C00025E04B46002220212046CDF800A003F033
:1046D000C2F818B184F842700320D4E726B1A0686C
:1046E00040451AD038B108E020684068C0F308009F
:1046F00025F8020B08E0206978B12068406800F0D6
:104700007F0000BF06F8010BE08D401EE085E08DC4
:104710000028D6D184F84270B5E720684068F1E7F8
:1047200090F84230202B01D00220704721B11AB1FD
:104730000023036303F074B80120704708B500211B
:104740000091154988420ED11448007805F056FDB5
:10475000134800236A46114900680BF01DFB012233
:104760000E490D4809E00F49884213D10E480078E0
:1047700005F044FD01220C490A48FFF7D1FF0098DB
:10478000002807D009494FF080500860BFF34F8FD1
:10479000BFF36F8F08BD0000A407002002000020B7
:1047A0003C000020340800200100002004ED00E05F
:1047B00070472DE9F843044690F8410098461646A4
:1047C0000D46202802D00220BDE8F88385B17EB1D5
:1047D00000206064212084F84100FDF737FDA684A5
:1047E0008146E684A0682027B0F5805F02D003E010
:1047F0000120E9E7206910B12E4600250EE00026D1
:104800000CE08021204603F026F8A8B9C6B116F8BE
:10481000010B21684860E08C401EE084E08C4B4630
:104820004FF00002CDF800800028EAD14FF040019F
:10483000204603F010F840B184F841700320C3E72C
:1048400035F8020BC0F30800E3E784F8417000205C
:10485000BAE7000070B5044690F84100202801D066
:10486000022070BD49B342B32162A284E2840020D9
:104870006064212384F84130A56B114BEB63A56B79
:10488000104B2B64A56B104BEB64A36B186525686C
:1048900013462A1DA06BFDF717FA21686FF0400040
:1048A00008602068143050E8001F41F0800140E8A3
:1048B0000012002AF5D1002070BD012070BD00005B
:1048C0000B7501084D7501081D740108704770478C
:1048D0002DE9F05F054600680E46074604F094FF98
:1048E000C6EB061140074FF007084FF0040905EB2F
:1048F000810401D5484633E03146286804F084FF3E
:10490000C0054FF0080A08D507EB46114FF4807038
:10491000C1F8080584F84DA028E03146286804F065
:1049200073FF000705D507EB4611C1F808A506205F
:104930000CE03146286804F067FF400509D507EB15
:1049400046114FF48060C1F80805092084F84D0035
:104950000CE03146286804F057FF00060AD5802095
:1049600007EB4611C1F8080584F84D8031462868E8
:1049700004F09BFC3146286804F046FF8005286857
:10498000314604D504F091FC4FF4007059E104F075
:104990003BFFC0074FF0200B4FF0010A4FF000081B
:1049A0004ED007EB4617C7F808B5E07E012807D1BF
:1049B00084F81B80D7F8040520F48030C7F804057C
:1049C000A87930B1206BD7F81015C1F31201401A45
:1049D000A06384F84DA0C4F844805246C7F808A5E7
:1049E00094F8260030B1022804D003280AD0012808
:1049F00008D013E03146286804F057FC1020C7F8AF
:104A000008050BE0D7F8000540F00050C7F8000596
:104A100084F84C2031462846FDF7A5FCA8790128EA
:104A200007D1208DA16B0144491EB1FBF0F0C007F6
:104A300004D014F83C0F80F001002070BDE8F09F16
:104A40003146286804F0E0FE80060CD507EB4611DD
:104A5000C1F808B5A07E0128F0D184F81BA003207E
:104A600084F84D00B4E03146286804F0CDFE80079C
:104A70004FF0050B75D507EB46100221C0F808155D
:104A800094F84D20012A16D0062A19D0072A1CD0E6
:104A9000092A1AD0052A33D0032A63D0042A7DD0EC
:104AA000082A7ED0022AC9D094F84C2031462846E4
:104AB000FDF759FCC2E784F84D1084F84CA0F3E7E9
:104AC00084F84D1084F84CB0EEE784F84D10626C19
:104AD000521C6264022A10D9C4F84480A27E414666
:104AE000012A07D1E1762177D0F8041521F480312D
:104AF000C0F8041584F84C90D6E784F84C1022E0F6
:104B000084F84D10E27E012ACED194F82620032AA3
:104B1000F3D1A26C521CA264022A11D9C4F84880B5
:104B200084F81B80616C032901D284F81CA0D0F8A2
:104B3000041521F48031C0F8041584F84C9002E08B
:104B400084F84C10B0E794F8261009B10229ABD1D3
:104B5000D0F8001521F0804141F00041C0F8001567
:104B6000A2E724E084F84D10E27E012A9CD184F86B
:104B70004C10D0F8041541F48031C0F80415D0F879
:104B80000C1541F04001C0F80C15D0F80C1521F0BF
:104B90002001C0F80C15D6E700E002E084F84D10C3
:104BA000ABE784F84D10606C401C6064A2E73146AE
:104BB000286804F029FE400610D507EB4611402076
:104BC000C1F8080584F84DB0A07E08B9C4F8448047
:104BD00031462868BDE8F05F04F067BB31462868BD
:104BE00004F012FEC0067FF565AF94F82600032896
:104BF00003D028B1022803D00FE0C4F8448006E0B7
:104C0000C4F84480A87910B1E07E012818D184F856
:104C10004D903146286804F048FBE07E01280FD112
:104C200007EB461084F81B80D0F8041521F480317E
:104C3000C0F80415D0F80C1541F02001C0F80C158F
:104C4000102007EB4611C1F80805F7E62DE9F05FE3
:104C5000054600680F46064604F0D6FDC7EB07116F
:104C600040074FF0040A05EB810405D506EB471118
:104C7000C1F808A5072089E03946286804F0C4FD7A
:104C800080064FF000084FF001094FF0020B28D5C5
:104C900006EB47112020C1F80805607E0326012895
:104CA00009D184F8198084F84CB084F84D603946F5
:104CB000286804F0FAFAA07E012810D1E07E0028CE
:104CC0000DD194F82600012801D084F81B9084F8B7
:104CD0004D603946286804F0E8FAC4F84480BDE81D
:104CE000F09F3946286804F08FFD800506D506EB55
:104CF00047114FF40070C1F8080549E039462868AB
:104D000004F082FDC00720D0C4F8448039462868EA
:104D100004F07AFD400606D506EB471184F8199099
:104D20004020C1F80805E07E48B106EB471084F842
:104D30001B80D0F8041521F48031C0F8041506EB6F
:104D400047114846C1F8089520E03946286804F024
:104D50005BFD40060ED5052084F84D00A07E08B905
:104D600084F81990C4F844803946286804F09DFA04
:104D7000402028E03946286804F046FD00070DD59C
:104D800006EB47110820C1F80805062084F84D00FD
:104D900039462868BDE8F05F04F087BA39462868CC
:104DA00004F032FDC00613D5C4F8448084F84DA049
:104DB000607E18B9207E08B984F8199039462868B1
:104DC00004F073FA102006EB4711C1F8080586E7D6
:104DD0003946286804F018FD00061CD5A87970B182
:104DE000606C401C6064022811D9C4F844805246AB
:104DF00084F84CA039462846FDF7B5FA09E00720AB
:104E000084F84D003946286804F04FFA01E084F830
:104E10004CB08020D7E73946286804F0F5FC4005FF
:104E200009D5092084F84D003946286804F03DFA78
:104E30004FF48060C7E73946286804F0E5FC800736
:104E4000C5D506EB47125846C2F808B594F84D1080
:104E5000012917D003293AD004293ED005294CD086
:104E600006294DD0072901D00929B0D184F84D0079
:104E7000616C491C6164022948D9C4F8448084F8F3
:104E80004CA04DE084F84D0084F84C9094F8260036
:104E9000022801D0032843D1A87928B994F83D000D
:104EA00080F0010084F83D00A879012838D1606BBA
:104EB00010B3218D0844401EB0FBF1F0C0072FD085
:104EC00094F83D0080F0010084F83D0028E084F86B
:104ED0004D00E17E012916D022E084F84D0084F8CF
:104EE0004C00E07E01281BD184F81B80D2F8040519
:104EF00020F48030C2F8040512E084F84D0002E08E
:104F000084F84D00052084F84C0009E084F84C003A
:104F1000D2F8000520F0804040F00040C2F80005C3
:104F200094F84C2039462846FDF71DFAD7E67CB5A3
:104F300004680546D4F840040190D4F8400420F0F9
:104F40002E0000900198800709D50198C00702D073
:104F50002846FDF781F9009840F002000090019882
:104F6000000724D5009840F0080000900198400701
:104F70001AD5687A022803D0E87901280CD00FE00E
:104F80000198C0F341400228286803D0012104F0B1
:104F90001FFC05E00221FAE74EF66020C4F8040485
:104FA0002846FDF751FB02E02846FDF749FB019832
:104FB0008006009802D540F020000090C4F840041C
:104FC0007CBD2DE9F041024600680646016AC1F346
:104FD000434301F00F07C1F30A15022B2ED1002D18
:104FE0002CD0C7EB071102EB8104E16A002925D020
:104FF000A26B636B2A449A4222D82A4604F010FC22
:10500000E06A2844E062A06B2844A06306EB4710E6
:10501000D0F81015228DC1F3C941AA420ED1002942
:105020000CD0D0F8001521F0804141F00041C0F8CB
:10503000001514F83C0F80F001002070BDE8F081ED
:10504000042084F84C00F9E7FEE701684A69D2437E
:1050500052050FD46FF480624A61002140F8301F7E
:10506000202242738173026942F0040202610173DB
:1050700001207047002070472DE9F84F0446C06AB0
:105080001E4693460D4621680A6842F480620A6013
:10509000082807D0012805D010F5803F02D0206BEA
:1050A000112804D12068016841F4807101604FF03B
:1050B00001195B46002249462046009600F09EF901
:1050C0004FF4007840B120680068C00501D5C4F8ED
:1050D00040800320BDE8F88F2069DFF884A0B0F598
:1050E000804F0FD00620216800EAD51747F0F00066
:1050F000086133465A460AF10601204600F0C6F917
:1051000058BB03E0E8B240F001001CE02168E8B2BF
:10511000086133465A465146204600F0B7F9E0B9D7
:105120002068416981690091016841F480710160E2
:105130005B46002249462046009600F05FF90028B1
:10514000C1D147F0F1002168086133465A46514603
:10515000204600F09BF90028BCD00120BAE70000EF
:1051600002000100F8B50446C06A1E460D46174607
:10517000082807D0012805D010F5803F02D0206B09
:10518000122804D12068016841F48071016013463F
:1051900000224FF001112046009600F02FF940B197
:1051A00020680068C00502D54FF400702064032019
:1051B000F8BD2069B0F5804F0ED00620216800EAC6
:1051C000D51040F0F000086133463A460B492046BE
:1051D00000F05CF978B902E005F0FE0000E0E8B20A
:1051E00021680861054933463A46891F204600F088
:1051F0004DF90028DCD00120F8BD000008000100B6
:105200002DE9F84F0446006889460B9D01689846D1
:10521000174641F4806101602068016841F48071A3
:10522000016000954FF0011B0022594620460A9B61
:1052300000F0E4F84FF4007A40B120680068C0053F
:1052400001D5C4F840A00320BDE8F88F216809F01B
:10525000FE0008612B46284920460A9A00F016F9FC
:10526000F0BB20684169806900902A4620460A996F
:1052700000F0A2F940B1206C04283AD120680168FE
:1052800041F40071016034E0FEB2B8F1010F09D0C1
:105290002168380A08612A4620460A9900F08CF9EC
:1052A0000028E8D1206806612A4620460A9900F0C5
:1052B00083F90028DFD12068016841F48071016022
:1052C00000950022594620460A9B00F097F80028D6
:1052D000B3D1216809F0FF0040F00100086100E04F
:1052E00007E02B46044920460A9A00F0CFF8002830
:1052F000AAD00120A8E70000020001002DE9F84330
:10530000044600680D46DDE9089701689846164690
:1053100041F4807101604B4600224FF0011120469C
:10532000009700F06BF848B120680068C00502D50E
:105330004FF4007020640320BDE8F883216805F075
:10534000FE0008613B464A461549204600F09EF89B
:1053500088B920684169806900903A4649462046EC
:1053600000F02AF948B1206C042804D120680168B3
:1053700041F4007101600120DEE7F5B2B8F1010FE0
:1053800009D02168300A08613A464946204600F0B3
:1053900013F90028E7D1206805610020CCE7000060
:1053A0000200010070B516460D4604461EE0204678
:1053B000FFF74BFE08B1012070BD681C16D0FCF74A
:1053C00045FF801BA84200D885B920684069C043CA
:1053D00040070BD5002044F8300F20216173A073E3
:1053E000216941F0200121612073E4E720684069D0
:1053F000C0434007DBD4002070BD00002DE9F0471A
:10540000984617460D460446C1F30746DDF820903E
:105410002AE000BFB8F1FF3F26D0FCF717FFA0EB52
:105420000901414502D8B8F1000F1DD12068012EB5
:1054300016D0806925EA00000004000C12D000207C
:10544000B84211D1002044F8300F20216173A073BD
:10545000216941F02001216120730120BDE8F0871E
:105460004069E7E70120EBE72068012E0AD0806958
:1054700025EA00000004000C06D00020B842C9D084
:105480000020EBE74069F3E70120F7E72DE9F0475B
:10549000984616460D4604464FF000094FF0200A84
:1054A000C1F3074723E020684069C043400515D495
:1054B0002068016841F40071016021686FF4806028
:1054C0004861C4F8309084F83DA084F83E90216C87
:1054D00041F00401216484F83C9021E0701C06D066
:1054E000FCF7B4FEA0EB0800B04203D816B1012FC0
:1054F0001FD021E02068012F15D0806925EA000027
:105500000004000C18D000BF44F8309F84F80DA0B0
:1055100084F80E90216941F02001216184F80C90FB
:105520000120BDE8F087406925EA00000004000C76
:10553000EAD12068406901E02068806925EA00001E
:105540000004000CAFD1ECE72DE9F04100259046B6
:105550000E460446202728E04069C043C0060CD40C
:1055600054F8301B6FF01000486144F81059677709
:10557000A577206A2062257714E0FCF767FEA0EB90
:105580000800B04200D886B920684069C043400690
:105590000BD544F8305F6773A573206940F0200095
:1055A000206125730120BDE8F08120684169C9436D
:1055B0004906D1D40020F6E770B516460D460446DC
:1055C0001EE02046FFF741FD08B1012070BD681CB8
:1055D00016D0FCF73BFE801BA84200D885B9206896
:1055E0004069C04300060BD5002044F8300F20214D
:1055F0006173A073216941F0200121612073E4E708
:1056000020684069C0430006DBD4002070BD000064
:105610002DE9FC41154C00204FF4FA768DF804007A
:10562000009601237F21A56801AAD020A8470096F3
:10563000054601230021E76801AAD020B847284485
:10564000C5B29DF80400EA280DD140208DF8040071
:105650000096A4680123062101AAD020A04728446F
:1056600010F0FF0000D00120BDE8FC8140010020C7
:105670002DE9FC41594C00264FF4FA758DF8046071
:10568000009501237F21A76801AAD020B847009583
:10569000074601230021D4F80CC001AAD020E0471E
:1056A0003844C7B29DF80400EA287DD180208DF8E7
:1056B0000400009501230621D4F808C001AAD020D7
:1056C000E04707442169642088478DF8046000950D
:1056D00001230321A56801AAD020A847074401207F
:1056E00064258DF80400009503460621D4F808C00F
:1056F00001AAD020E047074420208DF8040000953F
:1057000001237F21D4F808C001AAD020E0474FF040
:1057100004088DF804800095074401230021D4F883
:1057200008C001AAD020E04707441F208DF80400DC
:1057300000950123D4F808C001AA1946D020E047FB
:105740008DF804800095074401231121D4F808C086
:1057500001AAD020E047074429208DF804000095D5
:1057600001231421D4F808C001AAD020E0478DF805
:1057700004600095074401237F21A66801AAD02078
:10578000B047C61902208DF80400009501230F21AF
:10579000A76801AAD020B84701230644009501AAB2
:1057A00019461820E76800E014E0B8473044C6B254
:1057B0009DF8040009280DD108208DF804000095FB
:1057C000A4680123312101AA1820A047304410F019
:1057D000FF0000D00120BDE8FC8100004001002056
:1057E000F0B587B05E4D6426009604460C232D214B
:1057F000EF6803AAD020B847BDF80C0040BA00B249
:1058000000EE100AF8EEC00AC4ED030ABDF80E005F
:1058100040BA00B200EE100AB8EEC02A84ED042AA5
:10582000BDF8100040BA00B200EE100AF8EEC01A3F
:105830009FED4C0A4C48082320EE801A62EE000AC5
:1058400021EE800A84ED031AC4ED040A84ED050AF2
:10585000D0ED031A01AA31EE611A84ED031A90ED1E
:10586000041A70EEC10AC4ED040AD0ED050A30EE48
:10587000600A84ED050ABDF8121049BA09B200EEBB
:10588000101AF8EEC01AC4ED001ABDF8141049BA87
:1058900009B200EE101AF8EEC00AC4ED010ABDF814
:1058A000161049BA09B200EE101AB8EEC01A9FEDF0
:1058B0002F0A61EE801A60EE800A21EE001A9FED39
:1058C0002C0A61EE801A60EE800A21EE000AC4ED17
:1058D000001AC4ED010A84ED020A90ED001A31EEBF
:1058E000C11A84ED001A90ED011A70EEC10AC4EDE0
:1058F000010AD0ED020A30EE600A84ED020A009639
:10590000ED6811211820A8479DF80B00C008C007BA
:1059100023D1BDF9040000EE100AF8EEC00AC4ED70
:10592000060ABDF9060000EE100AB8EEC01A84EDB2
:10593000071ABDF9080000EE100AF8EEC01A9FED34
:105940000D0A60EE800AC4ED060A61EE000A21EE3F
:10595000800AC4ED070A84ED080A07B0F0BD000014
:1059600040010020CDCC1C3A6C89002000007A3D1B
:1059700035FA8E3C0020193E70B50E2830D11A49F8
:105980000878FE282CD18C1C0A2300221046255CA6
:10599000401C6A4080B29842F9D3087B82421FD1F2
:1059A000124901200E2248700F49A1F10E00FAF7AA
:1059B0009AFC0D480E38B0F9021000EE101A0B498F
:1059C000B8EEC00A083181ED000AB0F9040000EE1B
:1059D000100A0846B8EEC00A81ED010A08F036F94F
:1059E000BDE8704009F026BBD68C0020F8010020ED
:1059F0000A460146024832234068FEF739BE0000DD
:105A0000F80100200A460146024832234068FEF7AA
:105A1000D0BE0000F8010020012291030148FCF7EC
:105A20000FBC00000004024000224FF480410148F6
:105A3000FCF706BC000402404FF480410148FCF72B
:105A4000F7BB0000000402400122D1030148FCF72B
:105A5000F7BB00000004024000224FF4004101485F
:105A6000FCF7EEBB000402404FF400410148FCF794
:105A7000DFBB00000004024070B50E480B4D0C4C1B
:105A8000C17829B90121C1702868804760688047C2
:105A900009480021006809F0F9FE800701D4A868D0
:105AA0008047A068BDE8704000470000E00000208B
:105AB000EC0000201C0200204000002010B5054C26
:105AC000206880474FF4FA7009F012FD6068BDE865
:105AD00010400047F80000207FB500211B480091CE
